{
  "contractName": "Demo",
  "abi": [
    {
      "inputs": [],
      "stateMutability": "nonpayable",
      "type": "constructor"
    },
    {
      "inputs": [],
      "name": "balance",
      "outputs": [
        {
          "internalType": "uint256",
          "name": "",
          "type": "uint256"
        }
      ],
      "stateMutability": "view",
      "type": "function",
      "constant": true
    },
    {
      "inputs": [],
      "name": "contribute",
      "outputs": [],
      "stateMutability": "payable",
      "type": "function",
      "payable": true
    }
  ],
  "bytecode": "0x608060405234801561001057600080fd5b5060008081905550610172806100276000396000f3fe6080604052600436106100295760003560e01c8063b69ef8a81461002e578063d7bb99ba14610059575b600080fd5b34801561003a57600080fd5b50610043610063565b604051610050919061009c565b60405180910390f35b610061610069565b005b60005481565b3460008082825461007a91906100e6565b92505081905550565b6000819050919050565b61009681610083565b82525050565b60006020820190506100b1600083018461008d565b92915050565b7f4e487b7100000000000000000000000000000000000000000000000000000000600052601160045260246000fd5b60006100f182610083565b91506100fc83610083565b9250827fffffffffffffffffffffffffffffffffffffffffffffffffffffffffffffffff03821115610131576101306100b7565b5b82820190509291505056fea2646970667358221220696047caff265f58168a735f41fcf1eed01f092dac04354f96bf5b6b4e5a099664736f6c634300080c0033",
  "immutableReferences": {},
  "source": "pragma solidity ^0.8.12;\n\ncontract Demo {\n    uint public balance;\n\n    // Initialize global variables\n    constructor() public\n    {\n        balance = 0;\n    }\n\n    // The payable keyword allows this function to accept Ether\n    function contribute() public payable\n    {\n        // msg.value is the value of Ether sent in a transaction\n        balance += msg.value;\n    }\n}",
  "sourcePath": "/Users/moubarakjeje/cs-699-webapp/smartcontract/contracts/demo.sol",
  "compiler": {
    "name": "solc",
    "version": "0.8.12+commit.f00d7308.Emscripten.clang"
  },
  "schemaVersion": "3.4.6",
  "updatedAt": "2022-03-24T03:07:57.108Z",
  "networkType": "ethereum",
  "devdoc": {
    "kind": "dev",
    "methods": {},
    "version": 1
  },
  "userdoc": {
    "kind": "user",
    "methods": {},
    "version": 1
  }
}