{
  "contractName": "Mbrk",
  "abi": [
    {
      "inputs": [],
      "stateMutability": "nonpayable",
      "type": "constructor"
    },
    {
      "anonymous": false,
      "inputs": [
        {
          "indexed": false,
          "internalType": "address",
          "name": "user",
          "type": "address"
        }
      ],
      "name": "RepoUpdated",
      "type": "event"
    },
    {
      "anonymous": false,
      "inputs": [
        {
          "indexed": false,
          "internalType": "address",
          "name": "user",
          "type": "address"
        }
      ],
      "name": "UserUpdated",
      "type": "event"
    },
    {
      "inputs": [],
      "name": "ping",
      "outputs": [],
      "stateMutability": "pure",
      "type": "function"
    },
    {
      "inputs": [
        {
          "internalType": "address",
          "name": "key",
          "type": "address"
        }
      ],
      "name": "createUser",
      "outputs": [],
      "stateMutability": "nonpayable",
      "type": "function"
    },
    {
      "inputs": [
        {
          "internalType": "address",
          "name": "key",
          "type": "address"
        }
      ],
      "name": "deleteUser",
      "outputs": [],
      "stateMutability": "nonpayable",
      "type": "function"
    },
    {
      "inputs": [
        {
          "internalType": "address",
          "name": "key",
          "type": "address"
        }
      ],
      "name": "grantAdmin",
      "outputs": [],
      "stateMutability": "nonpayable",
      "type": "function"
    },
    {
      "inputs": [
        {
          "internalType": "address",
          "name": "key",
          "type": "address"
        }
      ],
      "name": "revokeAdmin",
      "outputs": [],
      "stateMutability": "nonpayable",
      "type": "function"
    },
    {
      "inputs": [],
      "name": "getUser",
      "outputs": [
        {
          "components": [
            {
              "internalType": "bool",
              "name": "isValid",
              "type": "bool"
            },
            {
              "internalType": "bool",
              "name": "isAdmin",
              "type": "bool"
            },
            {
              "internalType": "address[]",
              "name": "accessList",
              "type": "address[]"
            }
          ],
          "internalType": "struct User",
          "name": "",
          "type": "tuple"
        }
      ],
      "stateMutability": "view",
      "type": "function"
    },
    {
      "inputs": [
        {
          "internalType": "address",
          "name": "key",
          "type": "address"
        }
      ],
      "name": "grantReadAccess",
      "outputs": [],
      "stateMutability": "nonpayable",
      "type": "function"
    },
    {
      "inputs": [
        {
          "internalType": "address",
          "name": "key",
          "type": "address"
        }
      ],
      "name": "revokeReadAccess",
      "outputs": [],
      "stateMutability": "nonpayable",
      "type": "function"
    },
    {
      "inputs": [],
      "name": "getRepo",
      "outputs": [
        {
          "internalType": "address",
          "name": "repoOwner",
          "type": "address"
        },
        {
          "internalType": "string[]",
          "name": "filenames",
          "type": "string[]"
        },
        {
          "internalType": "address[]",
          "name": "owners",
          "type": "address[]"
        },
        {
          "internalType": "address[]",
          "name": "accessList",
          "type": "address[]"
        },
        {
          "internalType": "bool",
          "name": "isValid",
          "type": "bool"
        }
      ],
      "stateMutability": "view",
      "type": "function"
    },
    {
      "inputs": [
        {
          "internalType": "string",
          "name": "filename",
          "type": "string"
        },
        {
          "internalType": "string",
          "name": "cid",
          "type": "string"
        },
        {
          "internalType": "uint256",
          "name": "filesize",
          "type": "uint256"
        }
      ],
      "name": "createFile",
      "outputs": [],
      "stateMutability": "nonpayable",
      "type": "function"
    },
    {
      "inputs": [
        {
          "internalType": "string",
          "name": "filename",
          "type": "string"
        }
      ],
      "name": "deleteFile",
      "outputs": [],
      "stateMutability": "nonpayable",
      "type": "function"
    },
    {
      "inputs": [
        {
          "internalType": "string",
          "name": "filename",
          "type": "string"
        }
      ],
      "name": "getFile",
      "outputs": [
        {
          "components": [
            {
              "internalType": "string",
              "name": "cid",
              "type": "string"
            },
            {
              "internalType": "uint256",
              "name": "size",
              "type": "uint256"
            },
            {
              "internalType": "bool",
              "name": "isValid",
              "type": "bool"
            }
          ],
          "internalType": "struct File",
          "name": "",
          "type": "tuple"
        }
      ],
      "stateMutability": "view",
      "type": "function"
    },
    {
      "inputs": [
        {
          "internalType": "string",
          "name": "filename",
          "type": "string"
        }
      ],
      "name": "checkFileExists",
      "outputs": [
        {
          "internalType": "bool",
          "name": "isValid",
          "type": "bool"
        }
      ],
      "stateMutability": "view",
      "type": "function"
    }
  ],
  "bytecode": "0x60806040523480156200001157600080fd5b506200002d3360006200006960201b6200119e1790919060201c565b62000048336000620000ca60201b620011ff1790919060201c565b620000633360016200012b60201b620012601790919060201c565b6200018c565b60018260000160008373ffffffffffffffffffffffffffffffffffffffff1673ffffffffffffffffffffffffffffffffffffffff16815260200190815260200160002060000160006101000a81548160ff0219169083151502179055505050565b60018260000160008373ffffffffffffffffffffffffffffffffffffffff1673ffffffffffffffffffffffffffffffffffffffff16815260200190815260200160002060000160016101000a81548160ff0219169083151502179055505050565b60018260000160008373ffffffffffffffffffffffffffffffffffffffff1673ffffffffffffffffffffffffffffffffffffffff16815260200190815260200160002060030160006101000a81548160ff0219169083151502179055505050565b613886806200019c6000396000f3fe608060405234801561001057600080fd5b50600436106100cf5760003560e01c80635c36b1861161008c578063a991005411610066578063a9910054146101da578063b42e17fb146101f6578063cdd8761814610212578063e0876aa81461022e576100cf565b80635c36b186146101965780635c60f226146101a0578063832880e7146101bc576100cf565b80630c1378f4146100d457806327203b58146100f05780632d3456701461012057806335bb3e161461013c578063425600b81461015857806357ef65c514610174575b600080fd5b6100ee60048036038101906100e99190612b78565b61025e565b005b61010a60048036038101906101059190612c0d565b610365565b6040516101179190612c75565b60405180910390f35b61013a60048036038101906101359190612cee565b610387565b005b61015660048036038101906101519190612cee565b610497565b005b610172600480360381019061016d9190612cee565b61058b565b005b61017c610628565b60405161018d959493929190612f43565b60405180910390f35b61019e610a2b565b005b6101ba60048036038101906101b59190612cee565b610a2d565b005b6101c4610b88565b6040516101d19190613079565b60405180910390f35b6101f460048036038101906101ef9190612c0d565b610ccf565b005b610210600480360381019061020b9190612cee565b610d22565b005b61022c60048036038101906102279190612cee565b610f2a565b005b61024860048036038101906102439190612c0d565b61106a565b60405161025591906130fa565b60405180910390f35b6102723360016112c190919063ffffffff16565b6102b1576040517f08c379a00000000000000000000000000000000000000000000000000000000081526004016102a890613179565b60405180910390fd5b6102c9858533600161131d909392919063ffffffff16565b15610309576040517f08c379a0000000000000000000000000000000000000000000000000000000008152600401610300906131e5565b60405180910390fd5b610327858585858533600161139c909695949392919063ffffffff16565b7f1b8e59569e31e6e8ccf4bf18b2f68925bd9aacf8fffc5de2a47b7c98f01d79c6336040516103569190613205565b60405180910390a15050505050565b600061037f838333600161131d909392919063ffffffff16565b905092915050565b61039b33600061158290919063ffffffff16565b6103da576040517f08c379a00000000000000000000000000000000000000000000000000000000081526004016103d19061326c565b60405180910390fd5b8073ffffffffffffffffffffffffffffffffffffffff163373ffffffffffffffffffffffffffffffffffffffff161415610449576040517f08c379a0000000000000000000000000000000000000000000000000000000008152600401610440906132d8565b60405180910390fd5b61045d81600061163890919063ffffffff16565b7f0163b5f10e25c839f35e6f2b201b31e88e17f49e6956232de5d2e6bbae3b78b88160405161048c9190613205565b60405180910390a150565b6104ab33600061158290919063ffffffff16565b6104ea576040517f08c379a00000000000000000000000000000000000000000000000000000000081526004016104e19061326c565b60405180910390fd5b6104fe81600061169990919063ffffffff16565b61053d576040517f08c379a000000000000000000000000000000000000000000000000000000000815260040161053490613344565b60405180910390fd5b6105518160006111ff90919063ffffffff16565b7f0163b5f10e25c839f35e6f2b201b31e88e17f49e6956232de5d2e6bbae3b78b8816040516105809190613205565b60405180910390a150565b6105a1338260006116f59092919063ffffffff16565b6105b78133600161191a9092919063ffffffff16565b7f1b8e59569e31e6e8ccf4bf18b2f68925bd9aacf8fffc5de2a47b7c98f01d79c6336040516105e69190613205565b60405180910390a17f0163b5f10e25c839f35e6f2b201b31e88e17f49e6956232de5d2e6bbae3b78b88160405161061d9190613205565b60405180910390a150565b60006060806060600080610646336001611b3f90919063ffffffff16565b90508060030160009054906101000a900460ff16610699576040517f08c379a000000000000000000000000000000000000000000000000000000000815260040161069090613179565b60405180910390fd5b600081600101805480602002602001604051908101604052809291908181526020016000905b8282101561076b5783829060005260206000200180546106de90613393565b80601f016020809104026020016040519081016040528092919081815260200182805461070a90613393565b80156107575780601f1061072c57610100808354040283529160200191610757565b820191906000526020600020905b81548152906001019060200180831161073a57829003601f168201915b5050505050815260200190600101906106bf565b505050509050600061077e825133611b8a565b90506000610796336000611c5190919063ffffffff16565b905060005b81600101805490508110156109745760006108008360010183815481106107c5576107c46133c5565b5b9060005260206000200160009054906101000a900473ffffffffffffffffffffffffffffffffffffffff166001611b3f90919063ffffffff16565b90508060030160009054906101000a900460ff1661081e5750610961565b6108fb8582600101805480602002602001604051908101604052809291908181526020016000905b828210156108f257838290600052602060002001805461086590613393565b80601f016020809104026020016040519081016040528092919081815260200182805461089190613393565b80156108de5780601f106108b3576101008083540402835291602001916108de565b820191906000526020600020905b8154815290600101906020018083116108c157829003601f168201915b505050505081526020019060010190610846565b50505050611c9c565b9450600061095082600101805490508560010185815481106109205761091f6133c5565b5b9060005260206000200160009054906101000a900473ffffffffffffffffffffffffffffffffffffffff16611b8a565b905061095c8582611dc7565b945050505b808061096c90613423565b91505061079b565b50338383866000018760030160009054906101000a900460ff1681805480602002602001604051908101604052809291908181526020018280548015610a0f57602002820191906000526020600020905b8160009054906101000a900473ffffffffffffffffffffffffffffffffffffffff1673ffffffffffffffffffffffffffffffffffffffff16815260200190600101908083116109c5575b5050505050915098509850985098509850505050509091929394565b565b610a4133600061158290919063ffffffff16565b610a80576040517f08c379a0000000000000000000000000000000000000000000000000000000008152600401610a779061326c565b60405180910390fd5b8073ffffffffffffffffffffffffffffffffffffffff163373ffffffffffffffffffffffffffffffffffffffff161415610aef576040517f08c379a0000000000000000000000000000000000000000000000000000000008152600401610ae6906132d8565b60405180910390fd5b610b03816000611f4b90919063ffffffff16565b610b1781600161204790919063ffffffff16565b7f0163b5f10e25c839f35e6f2b201b31e88e17f49e6956232de5d2e6bbae3b78b881604051610b469190613205565b60405180910390a17f1b8e59569e31e6e8ccf4bf18b2f68925bd9aacf8fffc5de2a47b7c98f01d79c681604051610b7d9190613205565b60405180910390a150565b610b906128fa565b6000610ba6336000611c5190919063ffffffff16565b90508060000160009054906101000a900460ff16610bf9576040517f08c379a0000000000000000000000000000000000000000000000000000000008152600401610bf090613344565b60405180910390fd5b806040518060600160405290816000820160009054906101000a900460ff161515151581526020016000820160019054906101000a900460ff1615151515815260200160018201805480602002602001604051908101604052809291908181526020018280548015610cc057602002820191906000526020600020905b8160009054906101000a900473ffffffffffffffffffffffffffffffffffffffff1673ffffffffffffffffffffffffffffffffffffffff1681526020019060010190808311610c76575b50505050508152505091505090565b610ce782823360016120f8909392919063ffffffff16565b7f1b8e59569e31e6e8ccf4bf18b2f68925bd9aacf8fffc5de2a47b7c98f01d79c633604051610d169190613205565b60405180910390a15050565b610d363360016112c190919063ffffffff16565b610d75576040517f08c379a0000000000000000000000000000000000000000000000000000000008152600401610d6c90613179565b60405180910390fd5b610d8b813360016123529092919063ffffffff16565b15610dcb576040517f08c379a0000000000000000000000000000000000000000000000000000000008152600401610dc2906134b8565b60405180910390fd5b610ddf81600061169990919063ffffffff16565b610e1e576040517f08c379a0000000000000000000000000000000000000000000000000000000008152600401610e1590613344565b60405180910390fd5b3373ffffffffffffffffffffffffffffffffffffffff168173ffffffffffffffffffffffffffffffffffffffff161415610e8d576040517f08c379a0000000000000000000000000000000000000000000000000000000008152600401610e8490613524565b60405180910390fd5b610ea3338260006123b69092919063ffffffff16565b610eb9813360016124609092919063ffffffff16565b7f1b8e59569e31e6e8ccf4bf18b2f68925bd9aacf8fffc5de2a47b7c98f01d79c633604051610ee89190613205565b60405180910390a17f0163b5f10e25c839f35e6f2b201b31e88e17f49e6956232de5d2e6bbae3b78b881604051610f1f9190613205565b60405180910390a150565b610f3e33600061158290919063ffffffff16565b610f7d576040517f08c379a0000000000000000000000000000000000000000000000000000000008152600401610f749061326c565b60405180910390fd5b610f9181600061169990919063ffffffff16565b15610fd1576040517f08c379a0000000000000000000000000000000000000000000000000000000008152600401610fc890613590565b60405180910390fd5b610fe581600061119e90919063ffffffff16565b610ff981600161126090919063ffffffff16565b7f1b8e59569e31e6e8ccf4bf18b2f68925bd9aacf8fffc5de2a47b7c98f01d79c6816040516110289190613205565b60405180910390a17f0163b5f10e25c839f35e6f2b201b31e88e17f49e6956232de5d2e6bbae3b78b88160405161105f9190613205565b60405180910390a150565b61107261291f565b600061108c848433600161250a909392919063ffffffff16565b6040518060600160405290816000820180546110a790613393565b80601f01602080910402602001604051908101604052809291908181526020018280546110d390613393565b80156111205780601f106110f557610100808354040283529160200191611120565b820191906000526020600020905b81548152906001019060200180831161110357829003601f168201915b50505050508152602001600182015481526020016002820160009054906101000a900460ff16151515158152505090508060400151611194576040517f08c379a000000000000000000000000000000000000000000000000000000000815260040161118b906135fc565b60405180910390fd5b8091505092915050565b60018260000160008373ffffffffffffffffffffffffffffffffffffffff1673ffffffffffffffffffffffffffffffffffffffff16815260200190815260200160002060000160006101000a81548160ff0219169083151502179055505050565b60018260000160008373ffffffffffffffffffffffffffffffffffffffff1673ffffffffffffffffffffffffffffffffffffffff16815260200190815260200160002060000160016101000a81548160ff0219169083151502179055505050565b60018260000160008373ffffffffffffffffffffffffffffffffffffffff1673ffffffffffffffffffffffffffffffffffffffff16815260200190815260200160002060030160006101000a81548160ff0219169083151502179055505050565b60008260000160008373ffffffffffffffffffffffffffffffffffffffff1673ffffffffffffffffffffffffffffffffffffffff16815260200190815260200160002060030160009054906101000a900460ff16905092915050565b60008460000160008373ffffffffffffffffffffffffffffffffffffffff1673ffffffffffffffffffffffffffffffffffffffff168152602001908152602001600020600201848460405161137392919061365b565b908152602001604051809103902060020160009054906101000a900460ff169050949350505050565b8660000160008273ffffffffffffffffffffffffffffffffffffffff1673ffffffffffffffffffffffffffffffffffffffff16815260200190815260200160002060010186869091806001815401808255809150506001900390600052602060002001600090919290919290919290919250919061141b929190612942565b5083838860000160008473ffffffffffffffffffffffffffffffffffffffff1673ffffffffffffffffffffffffffffffffffffffff168152602001908152602001600020600201888860405161147292919061365b565b90815260200160405180910390206000019190611490929190612942565b50818760000160008373ffffffffffffffffffffffffffffffffffffffff1673ffffffffffffffffffffffffffffffffffffffff16815260200190815260200160002060020187876040516114e692919061365b565b90815260200160405180910390206001018190555060018760000160008373ffffffffffffffffffffffffffffffffffffffff1673ffffffffffffffffffffffffffffffffffffffff168152602001908152602001600020600201878760405161155192919061365b565b908152602001604051809103902060020160006101000a81548160ff02191690831515021790555050505050505050565b60008260000160008373ffffffffffffffffffffffffffffffffffffffff1673ffffffffffffffffffffffffffffffffffffffff16815260200190815260200160002060000160019054906101000a900460ff16801561163057508260000160008373ffffffffffffffffffffffffffffffffffffffff1673ffffffffffffffffffffffffffffffffffffffff16815260200190815260200160002060000160009054906101000a900460ff165b905092915050565b60008260000160008373ffffffffffffffffffffffffffffffffffffffff1673ffffffffffffffffffffffffffffffffffffffff16815260200190815260200160002060000160016101000a81548160ff0219169083151502179055505050565b60008260000160008373ffffffffffffffffffffffffffffffffffffffff1673ffffffffffffffffffffffffffffffffffffffff16815260200190815260200160002060000160009054906101000a900460ff16905092915050565b60008360000160008373ffffffffffffffffffffffffffffffffffffffff1673ffffffffffffffffffffffffffffffffffffffff168152602001908152602001600020600101805490509050600061174e858585612578565b905081811061175e575050611915565b8460000160008473ffffffffffffffffffffffffffffffffffffffff1673ffffffffffffffffffffffffffffffffffffffff1681526020019081526020016000206001016001836117af9190613674565b815481106117c0576117bf6133c5565b5b9060005260206000200160009054906101000a900473ffffffffffffffffffffffffffffffffffffffff168560000160008573ffffffffffffffffffffffffffffffffffffffff1673ffffffffffffffffffffffffffffffffffffffff1681526020019081526020016000206001018281548110611841576118406133c5565b5b9060005260206000200160006101000a81548173ffffffffffffffffffffffffffffffffffffffff021916908373ffffffffffffffffffffffffffffffffffffffff1602179055508460000160008473ffffffffffffffffffffffffffffffffffffffff1673ffffffffffffffffffffffffffffffffffffffff1681526020019081526020016000206001018054806118dd576118dc6136a8565b5b6001900381819060005260206000200160006101000a81549073ffffffffffffffffffffffffffffffffffffffff0219169055905550505b505050565b60008360000160008373ffffffffffffffffffffffffffffffffffffffff1673ffffffffffffffffffffffffffffffffffffffff16815260200190815260200160002060000180549050905060006119738584866126ae565b9050818110611983575050611b3a565b8460000160008473ffffffffffffffffffffffffffffffffffffffff1673ffffffffffffffffffffffffffffffffffffffff1681526020019081526020016000206000016001836119d49190613674565b815481106119e5576119e46133c5565b5b9060005260206000200160009054906101000a900473ffffffffffffffffffffffffffffffffffffffff168560000160008573ffffffffffffffffffffffffffffffffffffffff1673ffffffffffffffffffffffffffffffffffffffff1681526020019081526020016000206000018281548110611a6657611a656133c5565b5b9060005260206000200160006101000a81548173ffffffffffffffffffffffffffffffffffffffff021916908373ffffffffffffffffffffffffffffffffffffffff1602179055508460000160008473ffffffffffffffffffffffffffffffffffffffff1673ffffffffffffffffffffffffffffffffffffffff168152602001908152602001600020600001805480611b0257611b016136a8565b5b6001900381819060005260206000200160006101000a81549073ffffffffffffffffffffffffffffffffffffffff0219169055905550505b505050565b60008260000160008373ffffffffffffffffffffffffffffffffffffffff1673ffffffffffffffffffffffffffffffffffffffff168152602001908152602001600020905092915050565b606060008367ffffffffffffffff811115611ba857611ba76136d7565b5b604051908082528060200260200182016040528015611bd65781602001602082028036833780820191505090505b50905060005b8151811015611c465783828281518110611bf957611bf86133c5565b5b602002602001019073ffffffffffffffffffffffffffffffffffffffff16908173ffffffffffffffffffffffffffffffffffffffff16815250508080611c3e90613423565b915050611bdc565b508091505092915050565b60008260000160008373ffffffffffffffffffffffffffffffffffffffff1673ffffffffffffffffffffffffffffffffffffffff168152602001908152602001600020905092915050565b6060600082518451611cae9190613706565b67ffffffffffffffff811115611cc757611cc66136d7565b5b604051908082528060200260200182016040528015611cfa57816020015b6060815260200190600190039081611ce55790505b50905060005b8451811015611d5557848181518110611d1c57611d1b6133c5565b5b6020026020010151828281518110611d3757611d366133c5565b5b60200260200101819052508080611d4d90613423565b915050611d00565b60005b8451811015611dbb57848181518110611d7457611d736133c5565b5b6020026020010151838381518110611d8f57611d8e6133c5565b5b60200260200101819052508080611da590613423565b9150508180611db390613423565b925050611d58565b82935050505092915050565b6060600082518451611dd99190613706565b67ffffffffffffffff811115611df257611df16136d7565b5b604051908082528060200260200182016040528015611e205781602001602082028036833780820191505090505b50905060005b8451811015611eaa57848181518110611e4257611e416133c5565b5b6020026020010151828281518110611e5d57611e5c6133c5565b5b602002602001019073ffffffffffffffffffffffffffffffffffffffff16908173ffffffffffffffffffffffffffffffffffffffff16815250508080611ea290613423565b915050611e26565b60005b8451811015611f3f57848181518110611ec957611ec86133c5565b5b6020026020010151838381518110611ee457611ee36133c5565b5b602002602001019073ffffffffffffffffffffffffffffffffffffffff16908173ffffffffffffffffffffffffffffffffffffffff16815250508080611f2990613423565b9150508180611f3790613423565b925050611ead565b82935050505092915050565b8160000160008273ffffffffffffffffffffffffffffffffffffffff1673ffffffffffffffffffffffffffffffffffffffff16815260200190815260200160002060000160006101000a81549060ff02191690558160000160008273ffffffffffffffffffffffffffffffffffffffff1673ffffffffffffffffffffffffffffffffffffffff16815260200190815260200160002060000160016101000a81549060ff02191690558160000160008273ffffffffffffffffffffffffffffffffffffffff1673ffffffffffffffffffffffffffffffffffffffff168152602001908152602001600020600101600061204391906129c8565b5050565b60008260000160008373ffffffffffffffffffffffffffffffffffffffff1673ffffffffffffffffffffffffffffffffffffffff16815260200190815260200160002060030160006101000a81548160ff0219169083151502179055508160000160008273ffffffffffffffffffffffffffffffffffffffff1673ffffffffffffffffffffffffffffffffffffffff16815260200190815260200160002060000160006120f491906129c8565b5050565b60008460000160008373ffffffffffffffffffffffffffffffffffffffff1673ffffffffffffffffffffffffffffffffffffffff1681526020019081526020016000206001018054905090506000612152868686866127e4565b905081811061216257505061234c565b8560000160008473ffffffffffffffffffffffffffffffffffffffff1673ffffffffffffffffffffffffffffffffffffffff1681526020019081526020016000206001016001836121b39190613674565b815481106121c4576121c36133c5565b5b906000526020600020018660000160008573ffffffffffffffffffffffffffffffffffffffff1673ffffffffffffffffffffffffffffffffffffffff1681526020019081526020016000206001018281548110612224576122236133c5565b5b9060005260206000200190805461223a90613393565b6122459291906129e9565b508560000160008473ffffffffffffffffffffffffffffffffffffffff1673ffffffffffffffffffffffffffffffffffffffff16815260200190815260200160002060010180548061229a576122996136a8565b5b6001900381819060005260206000200160006122b69190612a76565b90558560000160008473ffffffffffffffffffffffffffffffffffffffff1673ffffffffffffffffffffffffffffffffffffffff168152602001908152602001600020600201858560405161230c92919061365b565b90815260200160405180910390206000808201600061232b9190612a76565b60018201600090556002820160006101000a81549060ff0219169055505050505b50505050565b6000806123608585856126ae565b90508460000160008473ffffffffffffffffffffffffffffffffffffffff1673ffffffffffffffffffffffffffffffffffffffff1681526020019081526020016000206000018054905081109150509392505050565b8260000160008273ffffffffffffffffffffffffffffffffffffffff1673ffffffffffffffffffffffffffffffffffffffff168152602001908152602001600020600101829080600181540180825580915050600190039060005260206000200160009091909190916101000a81548173ffffffffffffffffffffffffffffffffffffffff021916908373ffffffffffffffffffffffffffffffffffffffff160217905550505050565b8260000160008273ffffffffffffffffffffffffffffffffffffffff1673ffffffffffffffffffffffffffffffffffffffff168152602001908152602001600020600001829080600181540180825580915050600190039060005260206000200160009091909190916101000a81548173ffffffffffffffffffffffffffffffffffffffff021916908373ffffffffffffffffffffffffffffffffffffffff160217905550505050565b60008460000160008373ffffffffffffffffffffffffffffffffffffffff1673ffffffffffffffffffffffffffffffffffffffff168152602001908152602001600020600201848460405161256092919061365b565b90815260200160405180910390209050949350505050565b6000808460000160008473ffffffffffffffffffffffffffffffffffffffff1673ffffffffffffffffffffffffffffffffffffffff16815260200190815260200160002060010180549050905060005b818110156126a1578473ffffffffffffffffffffffffffffffffffffffff168660000160008673ffffffffffffffffffffffffffffffffffffffff1673ffffffffffffffffffffffffffffffffffffffff168152602001908152602001600020600101828154811061263d5761263c6133c5565b5b9060005260206000200160009054906101000a900473ffffffffffffffffffffffffffffffffffffffff1673ffffffffffffffffffffffffffffffffffffffff16141561268e5780925050506126a7565b808061269990613423565b9150506125c8565b50809150505b9392505050565b6000808460000160008473ffffffffffffffffffffffffffffffffffffffff1673ffffffffffffffffffffffffffffffffffffffff16815260200190815260200160002060000180549050905060005b818110156127d7578473ffffffffffffffffffffffffffffffffffffffff168660000160008673ffffffffffffffffffffffffffffffffffffffff1673ffffffffffffffffffffffffffffffffffffffff1681526020019081526020016000206000018281548110612773576127726133c5565b5b9060005260206000200160009054906101000a900473ffffffffffffffffffffffffffffffffffffffff1673ffffffffffffffffffffffffffffffffffffffff1614156127c45780925050506127dd565b80806127cf90613423565b9150506126fe565b50809150505b9392505050565b6000808560000160008473ffffffffffffffffffffffffffffffffffffffff1673ffffffffffffffffffffffffffffffffffffffff16815260200190815260200160002060010180549050905060005b818110156128ec57858560405161284c92919061378c565b60405180910390208760000160008673ffffffffffffffffffffffffffffffffffffffff1673ffffffffffffffffffffffffffffffffffffffff16815260200190815260200160002060010182815481106128aa576128a96133c5565b5b906000526020600020016040516128c19190613839565b604051809103902014156128d95780925050506128f2565b80806128e490613423565b915050612834565b50809150505b949350505050565b6040518060600160405280600015158152602001600015158152602001606081525090565b604051806060016040528060608152602001600081526020016000151581525090565b82805461294e90613393565b90600052602060002090601f01602090048101928261297057600085556129b7565b82601f1061298957803560ff19168380011785556129b7565b828001600101855582156129b7579182015b828111156129b657823582559160200191906001019061299b565b5b5090506129c49190612ab6565b5090565b50805460008255906000526020600020908101906129e69190612ab6565b50565b8280546129f590613393565b90600052602060002090601f016020900481019282612a175760008555612a65565b82601f10612a285780548555612a65565b82800160010185558215612a6557600052602060002091601f016020900482015b82811115612a64578254825591600101919060010190612a49565b5b509050612a729190612ab6565b5090565b508054612a8290613393565b6000825580601f10612a945750612ab3565b601f016020900490600052602060002090810190612ab29190612ab6565b5b50565b5b80821115612acf576000816000905550600101612ab7565b5090565b600080fd5b600080fd5b600080fd5b600080fd5b600080fd5b60008083601f840112612b0257612b01612add565b5b8235905067ffffffffffffffff811115612b1f57612b1e612ae2565b5b602083019150836001820283011115612b3b57612b3a612ae7565b5b9250929050565b6000819050919050565b612b5581612b42565b8114612b6057600080fd5b50565b600081359050612b7281612b4c565b92915050565b600080600080600060608688031215612b9457612b93612ad3565b5b600086013567ffffffffffffffff811115612bb257612bb1612ad8565b5b612bbe88828901612aec565b9550955050602086013567ffffffffffffffff811115612be157612be0612ad8565b5b612bed88828901612aec565b93509350506040612c0088828901612b63565b9150509295509295909350565b60008060208385031215612c2457612c23612ad3565b5b600083013567ffffffffffffffff811115612c4257612c41612ad8565b5b612c4e85828601612aec565b92509250509250929050565b60008115159050919050565b612c6f81612c5a565b82525050565b6000602082019050612c8a6000830184612c66565b92915050565b600073ffffffffffffffffffffffffffffffffffffffff82169050919050565b6000612cbb82612c90565b9050919050565b612ccb81612cb0565b8114612cd657600080fd5b50565b600081359050612ce881612cc2565b92915050565b600060208284031215612d0457612d03612ad3565b5b6000612d1284828501612cd9565b91505092915050565b612d2481612cb0565b82525050565b600081519050919050565b600082825260208201905092915050565b6000819050602082019050919050565b600081519050919050565b600082825260208201905092915050565b60005b83811015612d90578082015181840152602081019050612d75565b83811115612d9f576000848401525b50505050565b6000601f19601f8301169050919050565b6000612dc182612d56565b612dcb8185612d61565b9350612ddb818560208601612d72565b612de481612da5565b840191505092915050565b6000612dfb8383612db6565b905092915050565b6000602082019050919050565b6000612e1b82612d2a565b612e258185612d35565b935083602082028501612e3785612d46565b8060005b85811015612e735784840389528151612e548582612def565b9450612e5f83612e03565b925060208a01995050600181019050612e3b565b50829750879550505050505092915050565b600081519050919050565b600082825260208201905092915050565b6000819050602082019050919050565b612eba81612cb0565b82525050565b6000612ecc8383612eb1565b60208301905092915050565b6000602082019050919050565b6000612ef082612e85565b612efa8185612e90565b9350612f0583612ea1565b8060005b83811015612f36578151612f1d8882612ec0565b9750612f2883612ed8565b925050600181019050612f09565b5085935050505092915050565b600060a082019050612f586000830188612d1b565b8181036020830152612f6a8187612e10565b90508181036040830152612f7e8186612ee5565b90508181036060830152612f928185612ee5565b9050612fa16080830184612c66565b9695505050505050565b612fb481612c5a565b82525050565b600082825260208201905092915050565b6000612fd682612e85565b612fe08185612fba565b9350612feb83612ea1565b8060005b8381101561301c5781516130038882612ec0565b975061300e83612ed8565b925050600181019050612fef565b5085935050505092915050565b60006060830160008301516130416000860182612fab565b5060208301516130546020860182612fab565b506040830151848203604086015261306c8282612fcb565b9150508091505092915050565b600060208201905081810360008301526130938184613029565b905092915050565b6130a481612b42565b82525050565b600060608301600083015184820360008601526130c78282612db6565b91505060208301516130dc602086018261309b565b5060408301516130ef6040860182612fab565b508091505092915050565b6000602082019050818103600083015261311481846130aa565b905092915050565b600082825260208201905092915050565b7f5265706f7369746f727920646f6573206e6f7420657869737400000000000000600082015250565b600061316360198361311c565b915061316e8261312d565b602082019050919050565b6000602082019050818103600083015261319281613156565b9050919050565b7f46696c6520616c72656164792065786973747300000000000000000000000000600082015250565b60006131cf60138361311c565b91506131da82613199565b602082019050919050565b600060208201905081810360008301526131fe816131c2565b9050919050565b600060208201905061321a6000830184612d1b565b92915050565b7f43616c6c6572206973206e6f742061646d696e00000000000000000000000000600082015250565b600061325660138361311c565b915061326182613220565b602082019050919050565b6000602082019050818103600083015261328581613249565b9050919050565b7f43616c6c65722069732075736572000000000000000000000000000000000000600082015250565b60006132c2600e8361311c565b91506132cd8261328c565b602082019050919050565b600060208201905081810360008301526132f1816132b5565b9050919050565b7f5573657220646f6573206e6f7420657869737400000000000000000000000000600082015250565b600061332e60138361311c565b9150613339826132f8565b602082019050919050565b6000602082019050818103600083015261335d81613321565b9050919050565b7f4e487b7100000000000000000000000000000000000000000000000000000000600052602260045260246000fd5b600060028204905060018216806133ab57607f821691505b602082108114156133bf576133be613364565b5b50919050565b7f4e487b7100000000000000000000000000000000000000000000000000000000600052603260045260246000fd5b7f4e487b7100000000000000000000000000000000000000000000000000000000600052601160045260246000fd5b600061342e82612b42565b91507fffffffffffffffffffffffffffffffffffffffffffffffffffffffffffffffff821415613461576134606133f4565b5b600182019050919050565b7f5573657220616c72656164792068617320616363657373000000000000000000600082015250565b60006134a260178361311c565b91506134ad8261346c565b602082019050919050565b600060208201905081810360008301526134d181613495565b9050919050565b7f55736572206973207265706f7369746f7279206f776e65720000000000000000600082015250565b600061350e60188361311c565b9150613519826134d8565b602082019050919050565b6000602082019050818103600083015261353d81613501565b9050919050565b7f5573657220616c72656164792065786973747300000000000000000000000000600082015250565b600061357a60138361311c565b915061358582613544565b602082019050919050565b600060208201905081810360008301526135a98161356d565b9050919050565b7f46696c6520646f6573206e6f7420657869737400000000000000000000000000600082015250565b60006135e660138361311c565b91506135f1826135b0565b602082019050919050565b60006020820190508181036000830152613615816135d9565b9050919050565b600081905092915050565b82818337600083830152505050565b6000613642838561361c565b935061364f838584613627565b82840190509392505050565b6000613668828486613636565b91508190509392505050565b600061367f82612b42565b915061368a83612b42565b92508282101561369d5761369c6133f4565b5b828203905092915050565b7f4e487b7100000000000000000000000000000000000000000000000000000000600052603160045260246000fd5b7f4e487b7100000000000000000000000000000000000000000000000000000000600052604160045260246000fd5b600061371182612b42565b915061371c83612b42565b9250827fffffffffffffffffffffffffffffffffffffffffffffffffffffffffffffffff03821115613751576137506133f4565b5b828201905092915050565b600081905092915050565b6000613773838561375c565b9350613780838584613627565b82840190509392505050565b6000613799828486613767565b91508190509392505050565b60008190508160005260206000209050919050565b600081546137c781613393565b6137d1818661375c565b945060018216600081146137ec57600181146137fd57613830565b60ff19831686528186019350613830565b613806856137a5565b60005b8381101561382857815481890152600182019150602081019050613809565b838801955050505b50505092915050565b600061384582846137ba565b91508190509291505056fea26469706673582212202c2244fa45476c6f432627b990cf99baa62beea322af62770183343e26daa4d164736f6c634300080c0033",
  "immutableReferences": {},
  "source": "// SPDX-License-Identifier: UNLICENSED\npragma solidity ^0.8.12;\n\nimport \"./libraries/AccountsLibrary.sol\";\nimport \"./libraries/RepositoriesLibrary.sol\";\n\ncontract Mbrk {\n    using AccountsLibrary for AccountsLibrary.Accounts;\n    using RepositoriesLibrary for RepositoriesLibrary.Repositories;\n\n    AccountsLibrary.Accounts accounts;\n    RepositoriesLibrary.Repositories repos;\n\n    event RepoUpdated(\n        address user\n    );\n\n    event UserUpdated(\n        address user\n    );\n\n    constructor() {\n        accounts.enableUser(msg.sender);\n        accounts.setAdmin(msg.sender);\n        repos.enableRepo(msg.sender);\n    }\n\n    modifier onlyAdmin() {\n        require(accounts.checkAdmin(msg.sender), \"Caller is not admin\");\n        _;\n    }\n\n    function ping() external pure {}\n\n    function createUser(address key) external onlyAdmin {\n        if (accounts.exists(key)) {\n            revert(\"User already exists\");\n        }\n\n        accounts.enableUser(key);\n        repos.enableRepo(key);\n\n        emit RepoUpdated(key);\n        emit UserUpdated(key);\n    }\n\n    function deleteUser(address key) external onlyAdmin {\n        require(msg.sender != key, \"Caller is user\");\n        accounts.resetUser(key);\n        repos.resetRepo(key);\n\n        emit UserUpdated(key);\n        emit RepoUpdated(key);\n    }\n\n    function grantAdmin(address key) external onlyAdmin {\n        if (!accounts.exists(key)) {\n            revert(\"User does not exist\");\n        }\n        accounts.setAdmin(key);\n\n        emit UserUpdated(key);\n    }\n\n    function revokeAdmin(address key) external onlyAdmin {\n        require(msg.sender != key, \"Caller is user\");\n        accounts.resetAdmin(key);\n\n        emit UserUpdated(key);\n    }\n\n    function getUser() external view returns (User memory) {\n        User storage user = accounts.getUser(msg.sender);\n        require(user.isValid, \"User does not exist\");\n        return user;\n    }\n\n    function grantReadAccess(address key) external {\n        if (!repos.exists(msg.sender)) {\n            revert(\"Repository does not exist\");\n        }\n        if(repos.exists(key,msg.sender)){\n            revert(\"User already has access\");\n        }\n        if (!accounts.exists(key)) {\n            revert(\"User does not exist\");\n        }\n        if(key == msg.sender){\n            revert(\"User is repository owner\");\n        }\n\n        accounts.addRepo(msg.sender, key);\n        repos.addUser(key, msg.sender);\n\n        emit RepoUpdated(msg.sender);\n        emit UserUpdated(key);\n    }\n\n    function revokeReadAccess(address key) external {\n        accounts.removeRepo(msg.sender, key);\n        repos.removeUser(key, msg.sender);\n\n        emit RepoUpdated(msg.sender);\n        emit UserUpdated(key);\n    }\n\n    function getRepo()\n        external\n        view\n        returns (\n            address repoOwner,\n            string[] memory filenames,\n            address[] memory owners,\n            address[] memory accessList,\n            bool isValid\n        )\n    {\n        Repository storage repo = repos.getRepo(msg.sender);\n        require(repo.isValid, \"Repository does not exist\");\n\n        string[] memory allFilenames = repo.filenames;\n        address[] memory allOwners = fillAddressArray(\n            allFilenames.length,\n            msg.sender\n        );\n        User storage user = accounts.getUser(msg.sender);\n\n        for (uint256 i = 0; i < user.accessList.length; i++) {\n            Repository storage otherRepo = repos.getRepo(user.accessList[i]);\n            if (!otherRepo.isValid) {\n                continue;\n            }\n            allFilenames = concatenateStringArrays(\n                allFilenames,\n                otherRepo.filenames\n            );\n            address[] memory otherOwnerArr = fillAddressArray(\n                otherRepo.filenames.length,\n                user.accessList[i]\n            );\n            allOwners = concatenateAddressArrays(allOwners, otherOwnerArr);\n        }\n\n        return (msg.sender, allFilenames, allOwners, repo.accessList, repo.isValid);\n    }\n\n    function createFile(\n        string calldata filename,\n        string calldata cid,\n        uint256 filesize\n    ) external {\n        if (!repos.exists(msg.sender)) {\n            revert(\"Repository does not exist\");\n        }\n        if (repos.exists(filename, msg.sender)) {\n            revert(\"File already exists\");\n        }\n        repos.storeFileMeta(filename, cid, filesize, msg.sender);\n\n        emit RepoUpdated(msg.sender);\n    }\n\n    function deleteFile(string calldata filename) external {\n        repos.resetFileMeta(filename, msg.sender);\n\n        emit RepoUpdated(msg.sender);\n    }\n\n    function getFile(string calldata filename)\n        external\n        view\n        returns (File memory)\n    {\n        File memory file = repos.loadFileMeta(filename, msg.sender);\n        require(file.isValid, \"File does not exist\");\n        return file;\n    }\n\n    function checkFileExists(string calldata filename)\n        external\n        view\n        returns (bool isValid)\n    {\n        return repos.exists(filename, msg.sender);\n    }\n\n    function concatenateStringArrays(string[] memory a, string[] memory b)\n        internal\n        pure\n        returns (string[] memory)\n    {\n        string[] memory r = new string[](a.length + b.length);\n        uint256 i = 0;\n        while (i < a.length) {\n            r[i] = a[i];\n            i++;\n        }\n\n        uint256 j = 0;\n        while (j < b.length) {\n            r[i] = b[j];\n            j++;\n            i++;\n        }\n\n        return r;\n    }\n\n    function concatenateAddressArrays(address[] memory a, address[] memory b)\n        internal\n        pure\n        returns (address[] memory)\n    {\n        address[] memory r = new address[](a.length + b.length);\n        uint256 i = 0;\n        while (i < a.length) {\n            r[i] = a[i];\n            i++;\n        }\n\n        uint256 j = 0;\n        while (j < b.length) {\n            r[i] = b[j];\n            j++;\n            i++;\n        }\n\n        return r;\n    }\n\n    function fillAddressArray(uint256 length, address val)\n        internal\n        pure\n        returns (address[] memory)\n    {\n        address[] memory r = new address[](length);\n\n        for (uint256 i = 0; i < r.length; i++) {\n            r[i] = val;\n        }\n\n        return r;\n    }\n}\n",
  "sourcePath": "/Users/moubarakjeje/cs-699-dapp/smartcontract/contracts/MBRK.sol",
  "compiler": {
    "name": "solc",
    "version": "0.8.12+commit.f00d7308.Emscripten.clang"
  },
  "schemaVersion": "3.4.7",
  "updatedAt": "2022-05-07T09:39:59.324Z",
  "devdoc": {
    "kind": "dev",
    "methods": {},
    "version": 1
  },
  "userdoc": {
    "kind": "user",
    "methods": {},
    "version": 1
  }
}