{
  "contractName": "Mbrk",
  "abi": [
    {
      "inputs": [],
      "stateMutability": "nonpayable",
      "type": "constructor"
    },
    {
      "inputs": [],
      "name": "ping",
      "outputs": [],
      "stateMutability": "pure",
      "type": "function"
    },
    {
      "inputs": [
        {
          "internalType": "address",
          "name": "key",
          "type": "address"
        }
      ],
      "name": "createUser",
      "outputs": [],
      "stateMutability": "nonpayable",
      "type": "function"
    },
    {
      "inputs": [
        {
          "internalType": "address",
          "name": "key",
          "type": "address"
        }
      ],
      "name": "deleteUser",
      "outputs": [],
      "stateMutability": "nonpayable",
      "type": "function"
    },
    {
      "inputs": [
        {
          "internalType": "address",
          "name": "key",
          "type": "address"
        }
      ],
      "name": "grantAdmin",
      "outputs": [],
      "stateMutability": "nonpayable",
      "type": "function"
    },
    {
      "inputs": [
        {
          "internalType": "address",
          "name": "key",
          "type": "address"
        }
      ],
      "name": "revokeAdmin",
      "outputs": [],
      "stateMutability": "nonpayable",
      "type": "function"
    },
    {
      "inputs": [],
      "name": "getUser",
      "outputs": [
        {
          "components": [
            {
              "internalType": "bool",
              "name": "isValid",
              "type": "bool"
            },
            {
              "internalType": "bool",
              "name": "isAdmin",
              "type": "bool"
            },
            {
              "internalType": "address[]",
              "name": "accessList",
              "type": "address[]"
            }
          ],
          "internalType": "struct User",
          "name": "",
          "type": "tuple"
        }
      ],
      "stateMutability": "view",
      "type": "function"
    },
    {
      "inputs": [
        {
          "internalType": "address",
          "name": "key",
          "type": "address"
        }
      ],
      "name": "grantReadAccess",
      "outputs": [],
      "stateMutability": "nonpayable",
      "type": "function"
    },
    {
      "inputs": [
        {
          "internalType": "address",
          "name": "key",
          "type": "address"
        }
      ],
      "name": "revokeReadAccess",
      "outputs": [],
      "stateMutability": "nonpayable",
      "type": "function"
    },
    {
      "inputs": [],
      "name": "getHill",
      "outputs": [
        {
          "internalType": "string[]",
          "name": "filenames",
          "type": "string[]"
        },
        {
          "internalType": "address[]",
          "name": "accessList",
          "type": "address[]"
        },
        {
          "internalType": "bool",
          "name": "isValid",
          "type": "bool"
        }
      ],
      "stateMutability": "view",
      "type": "function"
    },
    {
      "inputs": [
        {
          "internalType": "string",
          "name": "filename",
          "type": "string"
        },
        {
          "internalType": "string",
          "name": "cid",
          "type": "string"
        },
        {
          "internalType": "uint256",
          "name": "filesize",
          "type": "uint256"
        }
      ],
      "name": "createFile",
      "outputs": [],
      "stateMutability": "nonpayable",
      "type": "function"
    },
    {
      "inputs": [
        {
          "internalType": "string",
          "name": "filename",
          "type": "string"
        }
      ],
      "name": "deleteFile",
      "outputs": [],
      "stateMutability": "nonpayable",
      "type": "function"
    },
    {
      "inputs": [
        {
          "internalType": "string",
          "name": "filename",
          "type": "string"
        }
      ],
      "name": "getFile",
      "outputs": [
        {
          "components": [
            {
              "internalType": "string",
              "name": "cid",
              "type": "string"
            },
            {
              "internalType": "uint256",
              "name": "size",
              "type": "uint256"
            },
            {
              "internalType": "bool",
              "name": "isValid",
              "type": "bool"
            }
          ],
          "internalType": "struct File",
          "name": "",
          "type": "tuple"
        }
      ],
      "stateMutability": "view",
      "type": "function"
    },
    {
      "inputs": [
        {
          "internalType": "string",
          "name": "filename",
          "type": "string"
        }
      ],
      "name": "checkFileExists",
      "outputs": [
        {
          "internalType": "bool",
          "name": "isValid",
          "type": "bool"
        }
      ],
      "stateMutability": "view",
      "type": "function"
    }
  ],
  "bytecode": "0x60806040523480156200001157600080fd5b506200002d3360006200006960201b62000b521790919060201c565b62000048336000620000ca60201b62000bb31790919060201c565b620000633360016200012b60201b62000c141790919060201c565b6200018c565b60018260000160008373ffffffffffffffffffffffffffffffffffffffff1673ffffffffffffffffffffffffffffffffffffffff16815260200190815260200160002060000160006101000a81548160ff0219169083151502179055505050565b60018260000160008373ffffffffffffffffffffffffffffffffffffffff1673ffffffffffffffffffffffffffffffffffffffff16815260200190815260200160002060000160016101000a81548160ff0219169083151502179055505050565b60018260000160008373ffffffffffffffffffffffffffffffffffffffff1673ffffffffffffffffffffffffffffffffffffffff16815260200190815260200160002060030160006101000a81548160ff0219169083151502179055505050565b612d8b806200019c6000396000f3fe608060405234801561001057600080fd5b50600436106100cf5760003560e01c80635c60f2261161008c578063a991005411610066578063a9910054146101d8578063b42e17fb146101f4578063cdd8761814610210578063e0876aa81461022c576100cf565b80635c60f2261461017e578063796f21521461019a578063832880e7146101ba576100cf565b80630c1378f4146100d457806327203b58146100f05780632d3456701461012057806335bb3e161461013c578063425600b8146101585780635c36b18614610174575b600080fd5b6100ee60048036038101906100e99190612227565b61025c565b005b61010a600480360381019061010591906122bc565b61032c565b6040516101179190612324565b60405180910390f35b61013a6004803603810190610135919061239d565b61034e565b005b6101566004803603810190610151919061239d565b610427565b005b610172600480360381019061016d919061239d565b6104e4565b005b61017c610513565b005b6101986004803603810190610193919061239d565b610515565b005b6101a2610602565b6040516101b1939291906125e3565b60405180910390f35b6101c26107f0565b6040516101cf91906126f6565b60405180910390f35b6101f260048036038101906101ed91906122bc565b61085b565b005b61020e6004803603810190610209919061239d565b610877565b005b61022a6004803603810190610225919061239d565b61094c565b005b610246600480360381019061024191906122bc565b610a1e565b6040516102539190612777565b60405180910390f35b610270336001610c7590919063ffffffff16565b6102af576040517f08c379a00000000000000000000000000000000000000000000000000000000081526004016102a6906127f6565b60405180910390fd5b6102c78585336001610cd1909392919063ffffffff16565b15610307576040517f08c379a00000000000000000000000000000000000000000000000000000000081526004016102fe90612862565b60405180910390fd5b6103258585858585336001610d50909695949392919063ffffffff16565b5050505050565b60006103468383336001610cd1909392919063ffffffff16565b905092915050565b610362336000610f3690919063ffffffff16565b6103a1576040517f08c379a0000000000000000000000000000000000000000000000000000000008152600401610398906128ce565b60405180910390fd5b8073ffffffffffffffffffffffffffffffffffffffff163373ffffffffffffffffffffffffffffffffffffffff161415610410576040517f08c379a00000000000000000000000000000000000000000000000000000000081526004016104079061293a565b60405180910390fd5b610424816000610fec90919063ffffffff16565b50565b61043b336000610f3690919063ffffffff16565b61047a576040517f08c379a0000000000000000000000000000000000000000000000000000000008152600401610471906128ce565b60405180910390fd5b61048e81600061104d90919063ffffffff16565b6104cd576040517f08c379a00000000000000000000000000000000000000000000000000000000081526004016104c4906129a6565b60405180910390fd5b6104e1816000610bb390919063ffffffff16565b50565b6104fa338260006110a99092919063ffffffff16565b610510813360016112ce9092919063ffffffff16565b50565b565b610529336000610f3690919063ffffffff16565b610568576040517f08c379a000000000000000000000000000000000000000000000000000000000815260040161055f906128ce565b60405180910390fd5b8073ffffffffffffffffffffffffffffffffffffffff163373ffffffffffffffffffffffffffffffffffffffff1614156105d7576040517f08c379a00000000000000000000000000000000000000000000000000000000081526004016105ce9061293a565b60405180910390fd5b6105eb8160006114f390919063ffffffff16565b6105ff8160016115ef90919063ffffffff16565b50565b60608060008061061c3360016116a090919063ffffffff16565b90508060030160009054906101000a900460ff1661066f576040517f08c379a0000000000000000000000000000000000000000000000000000000008152600401610666906127f6565b60405180910390fd5b80600101816000018260030160009054906101000a900460ff1682805480602002602001604051908101604052809291908181526020016000905b828210156107565783829060005260206000200180546106c9906129f5565b80601f01602080910402602001604051908101604052809291908181526020018280546106f5906129f5565b80156107425780601f1061071757610100808354040283529160200191610742565b820191906000526020600020905b81548152906001019060200180831161072557829003601f168201915b5050505050815260200190600101906106aa565b505050509250818054806020026020016040519081016040528092919081815260200182805480156107dd57602002820191906000526020600020905b8160009054906101000a900473ffffffffffffffffffffffffffffffffffffffff1673ffffffffffffffffffffffffffffffffffffffff1681526020019060010190808311610793575b5050505050915093509350935050909192565b6107f8611fa9565b600061080e3360006116eb90919063ffffffff16565b90508060000151610854576040517f08c379a000000000000000000000000000000000000000000000000000000000815260040161084b906129a6565b60405180910390fd5b8091505090565b610873828233600161180b909392919063ffffffff16565b5050565b61088b336001610c7590919063ffffffff16565b6108ca576040517f08c379a00000000000000000000000000000000000000000000000000000000081526004016108c1906127f6565b60405180910390fd5b6108de81600061104d90919063ffffffff16565b61091d576040517f08c379a0000000000000000000000000000000000000000000000000000000008152600401610914906129a6565b60405180910390fd5b61093333826000611a659092919063ffffffff16565b61094981336001611b0f9092919063ffffffff16565b50565b610960336000610f3690919063ffffffff16565b61099f576040517f08c379a0000000000000000000000000000000000000000000000000000000008152600401610996906128ce565b60405180910390fd5b6109b381600061104d90919063ffffffff16565b156109f3576040517f08c379a00000000000000000000000000000000000000000000000000000000081526004016109ea90612a73565b60405180910390fd5b610a07816000610b5290919063ffffffff16565b610a1b816001610c1490919063ffffffff16565b50565b610a26611fce565b6000610a408484336001611bb9909392919063ffffffff16565b604051806060016040529081600082018054610a5b906129f5565b80601f0160208091040260200160405190810160405280929190818152602001828054610a87906129f5565b8015610ad45780601f10610aa957610100808354040283529160200191610ad4565b820191906000526020600020905b815481529060010190602001808311610ab757829003601f168201915b50505050508152602001600182015481526020016002820160009054906101000a900460ff16151515158152505090508060400151610b48576040517f08c379a0000000000000000000000000000000000000000000000000000000008152600401610b3f90612adf565b60405180910390fd5b8091505092915050565b60018260000160008373ffffffffffffffffffffffffffffffffffffffff1673ffffffffffffffffffffffffffffffffffffffff16815260200190815260200160002060000160006101000a81548160ff0219169083151502179055505050565b60018260000160008373ffffffffffffffffffffffffffffffffffffffff1673ffffffffffffffffffffffffffffffffffffffff16815260200190815260200160002060000160016101000a81548160ff0219169083151502179055505050565b60018260000160008373ffffffffffffffffffffffffffffffffffffffff1673ffffffffffffffffffffffffffffffffffffffff16815260200190815260200160002060030160006101000a81548160ff0219169083151502179055505050565b60008260000160008373ffffffffffffffffffffffffffffffffffffffff1673ffffffffffffffffffffffffffffffffffffffff16815260200190815260200160002060030160009054906101000a900460ff16905092915050565b60008460000160008373ffffffffffffffffffffffffffffffffffffffff1673ffffffffffffffffffffffffffffffffffffffff1681526020019081526020016000206002018484604051610d27929190612b3e565b908152602001604051809103902060020160009054906101000a900460ff169050949350505050565b8660000160008273ffffffffffffffffffffffffffffffffffffffff1673ffffffffffffffffffffffffffffffffffffffff168152602001908152602001600020600101868690918060018154018082558091505060019003906000526020600020016000909192909192909192909192509190610dcf929190611ff1565b5083838860000160008473ffffffffffffffffffffffffffffffffffffffff1673ffffffffffffffffffffffffffffffffffffffff1681526020019081526020016000206002018888604051610e26929190612b3e565b90815260200160405180910390206000019190610e44929190611ff1565b50818760000160008373ffffffffffffffffffffffffffffffffffffffff1673ffffffffffffffffffffffffffffffffffffffff1681526020019081526020016000206002018787604051610e9a929190612b3e565b90815260200160405180910390206001018190555060018760000160008373ffffffffffffffffffffffffffffffffffffffff1673ffffffffffffffffffffffffffffffffffffffff1681526020019081526020016000206002018787604051610f05929190612b3e565b908152602001604051809103902060020160006101000a81548160ff02191690831515021790555050505050505050565b60008260000160008373ffffffffffffffffffffffffffffffffffffffff1673ffffffffffffffffffffffffffffffffffffffff16815260200190815260200160002060000160019054906101000a900460ff168015610fe457508260000160008373ffffffffffffffffffffffffffffffffffffffff1673ffffffffffffffffffffffffffffffffffffffff16815260200190815260200160002060000160009054906101000a900460ff165b905092915050565b60008260000160008373ffffffffffffffffffffffffffffffffffffffff1673ffffffffffffffffffffffffffffffffffffffff16815260200190815260200160002060000160016101000a81548160ff0219169083151502179055505050565b60008260000160008373ffffffffffffffffffffffffffffffffffffffff1673ffffffffffffffffffffffffffffffffffffffff16815260200190815260200160002060000160009054906101000a900460ff16905092915050565b60008360000160008373ffffffffffffffffffffffffffffffffffffffff1673ffffffffffffffffffffffffffffffffffffffff1681526020019081526020016000206001018054905090506000611102858585611c27565b90508181106111125750506112c9565b8460000160008473ffffffffffffffffffffffffffffffffffffffff1673ffffffffffffffffffffffffffffffffffffffff1681526020019081526020016000206001016001836111639190612b86565b8154811061117457611173612bba565b5b9060005260206000200160009054906101000a900473ffffffffffffffffffffffffffffffffffffffff168560000160008573ffffffffffffffffffffffffffffffffffffffff1673ffffffffffffffffffffffffffffffffffffffff16815260200190815260200160002060010182815481106111f5576111f4612bba565b5b9060005260206000200160006101000a81548173ffffffffffffffffffffffffffffffffffffffff021916908373ffffffffffffffffffffffffffffffffffffffff1602179055508460000160008473ffffffffffffffffffffffffffffffffffffffff1673ffffffffffffffffffffffffffffffffffffffff16815260200190815260200160002060010180548061129157611290612be9565b5b6001900381819060005260206000200160006101000a81549073ffffffffffffffffffffffffffffffffffffffff0219169055905550505b505050565b60008360000160008373ffffffffffffffffffffffffffffffffffffffff1673ffffffffffffffffffffffffffffffffffffffff1681526020019081526020016000206000018054905090506000611327858486611d5d565b90508181106113375750506114ee565b8460000160008473ffffffffffffffffffffffffffffffffffffffff1673ffffffffffffffffffffffffffffffffffffffff1681526020019081526020016000206000016001836113889190612b86565b8154811061139957611398612bba565b5b9060005260206000200160009054906101000a900473ffffffffffffffffffffffffffffffffffffffff168560000160008573ffffffffffffffffffffffffffffffffffffffff1673ffffffffffffffffffffffffffffffffffffffff168152602001908152602001600020600001828154811061141a57611419612bba565b5b9060005260206000200160006101000a81548173ffffffffffffffffffffffffffffffffffffffff021916908373ffffffffffffffffffffffffffffffffffffffff1602179055508460000160008473ffffffffffffffffffffffffffffffffffffffff1673ffffffffffffffffffffffffffffffffffffffff1681526020019081526020016000206000018054806114b6576114b5612be9565b5b6001900381819060005260206000200160006101000a81549073ffffffffffffffffffffffffffffffffffffffff0219169055905550505b505050565b8160000160008273ffffffffffffffffffffffffffffffffffffffff1673ffffffffffffffffffffffffffffffffffffffff16815260200190815260200160002060000160006101000a81549060ff02191690558160000160008273ffffffffffffffffffffffffffffffffffffffff1673ffffffffffffffffffffffffffffffffffffffff16815260200190815260200160002060000160016101000a81549060ff02191690558160000160008273ffffffffffffffffffffffffffffffffffffffff1673ffffffffffffffffffffffffffffffffffffffff16815260200190815260200160002060010160006115eb9190612077565b5050565b60008260000160008373ffffffffffffffffffffffffffffffffffffffff1673ffffffffffffffffffffffffffffffffffffffff16815260200190815260200160002060030160006101000a81548160ff0219169083151502179055508160000160008273ffffffffffffffffffffffffffffffffffffffff1673ffffffffffffffffffffffffffffffffffffffff168152602001908152602001600020600001600061169c9190612077565b5050565b60008260000160008373ffffffffffffffffffffffffffffffffffffffff1673ffffffffffffffffffffffffffffffffffffffff168152602001908152602001600020905092915050565b6116f3611fa9565b8260000160008373ffffffffffffffffffffffffffffffffffffffff1673ffffffffffffffffffffffffffffffffffffffff1681526020019081526020016000206040518060600160405290816000820160009054906101000a900460ff161515151581526020016000820160019054906101000a900460ff16151515158152602001600182018054806020026020016040519081016040528092919081815260200182805480156117fa57602002820191906000526020600020905b8160009054906101000a900473ffffffffffffffffffffffffffffffffffffffff1673ffffffffffffffffffffffffffffffffffffffff16815260200190600101908083116117b0575b505050505081525050905092915050565b60008460000160008373ffffffffffffffffffffffffffffffffffffffff1673ffffffffffffffffffffffffffffffffffffffff168152602001908152602001600020600101805490509050600061186586868686611e93565b9050818110611875575050611a5f565b8560000160008473ffffffffffffffffffffffffffffffffffffffff1673ffffffffffffffffffffffffffffffffffffffff1681526020019081526020016000206001016001836118c69190612b86565b815481106118d7576118d6612bba565b5b906000526020600020018660000160008573ffffffffffffffffffffffffffffffffffffffff1673ffffffffffffffffffffffffffffffffffffffff168152602001908152602001600020600101828154811061193757611936612bba565b5b9060005260206000200190805461194d906129f5565b611958929190612098565b508560000160008473ffffffffffffffffffffffffffffffffffffffff1673ffffffffffffffffffffffffffffffffffffffff1681526020019081526020016000206001018054806119ad576119ac612be9565b5b6001900381819060005260206000200160006119c99190612125565b90558560000160008473ffffffffffffffffffffffffffffffffffffffff1673ffffffffffffffffffffffffffffffffffffffff1681526020019081526020016000206002018585604051611a1f929190612b3e565b908152602001604051809103902060008082016000611a3e9190612125565b60018201600090556002820160006101000a81549060ff0219169055505050505b50505050565b8260000160008273ffffffffffffffffffffffffffffffffffffffff1673ffffffffffffffffffffffffffffffffffffffff168152602001908152602001600020600101829080600181540180825580915050600190039060005260206000200160009091909190916101000a81548173ffffffffffffffffffffffffffffffffffffffff021916908373ffffffffffffffffffffffffffffffffffffffff160217905550505050565b8260000160008273ffffffffffffffffffffffffffffffffffffffff1673ffffffffffffffffffffffffffffffffffffffff168152602001908152602001600020600001829080600181540180825580915050600190039060005260206000200160009091909190916101000a81548173ffffffffffffffffffffffffffffffffffffffff021916908373ffffffffffffffffffffffffffffffffffffffff160217905550505050565b60008460000160008373ffffffffffffffffffffffffffffffffffffffff1673ffffffffffffffffffffffffffffffffffffffff1681526020019081526020016000206002018484604051611c0f929190612b3e565b90815260200160405180910390209050949350505050565b6000808460000160008473ffffffffffffffffffffffffffffffffffffffff1673ffffffffffffffffffffffffffffffffffffffff16815260200190815260200160002060010180549050905060005b81811015611d50578473ffffffffffffffffffffffffffffffffffffffff168660000160008673ffffffffffffffffffffffffffffffffffffffff1673ffffffffffffffffffffffffffffffffffffffff1681526020019081526020016000206001018281548110611cec57611ceb612bba565b5b9060005260206000200160009054906101000a900473ffffffffffffffffffffffffffffffffffffffff1673ffffffffffffffffffffffffffffffffffffffff161415611d3d578092505050611d56565b8080611d4890612c18565b915050611c77565b50809150505b9392505050565b6000808460000160008473ffffffffffffffffffffffffffffffffffffffff1673ffffffffffffffffffffffffffffffffffffffff16815260200190815260200160002060000180549050905060005b81811015611e86578473ffffffffffffffffffffffffffffffffffffffff168660000160008673ffffffffffffffffffffffffffffffffffffffff1673ffffffffffffffffffffffffffffffffffffffff1681526020019081526020016000206000018281548110611e2257611e21612bba565b5b9060005260206000200160009054906101000a900473ffffffffffffffffffffffffffffffffffffffff1673ffffffffffffffffffffffffffffffffffffffff161415611e73578092505050611e8c565b8080611e7e90612c18565b915050611dad565b50809150505b9392505050565b6000808560000160008473ffffffffffffffffffffffffffffffffffffffff1673ffffffffffffffffffffffffffffffffffffffff16815260200190815260200160002060010180549050905060005b81811015611f9b578585604051611efb929190612c91565b60405180910390208760000160008673ffffffffffffffffffffffffffffffffffffffff1673ffffffffffffffffffffffffffffffffffffffff1681526020019081526020016000206001018281548110611f5957611f58612bba565b5b90600052602060002001604051611f709190612d3e565b60405180910390201415611f88578092505050611fa1565b8080611f9390612c18565b915050611ee3565b50809150505b949350505050565b6040518060600160405280600015158152602001600015158152602001606081525090565b604051806060016040528060608152602001600081526020016000151581525090565b828054611ffd906129f5565b90600052602060002090601f01602090048101928261201f5760008555612066565b82601f1061203857803560ff1916838001178555612066565b82800160010185558215612066579182015b8281111561206557823582559160200191906001019061204a565b5b5090506120739190612165565b5090565b50805460008255906000526020600020908101906120959190612165565b50565b8280546120a4906129f5565b90600052602060002090601f0160209004810192826120c65760008555612114565b82601f106120d75780548555612114565b8280016001018555821561211457600052602060002091601f016020900482015b828111156121135782548255916001019190600101906120f8565b5b5090506121219190612165565b5090565b508054612131906129f5565b6000825580601f106121435750612162565b601f0160209004906000526020600020908101906121619190612165565b5b50565b5b8082111561217e576000816000905550600101612166565b5090565b600080fd5b600080fd5b600080fd5b600080fd5b600080fd5b60008083601f8401126121b1576121b061218c565b5b8235905067ffffffffffffffff8111156121ce576121cd612191565b5b6020830191508360018202830111156121ea576121e9612196565b5b9250929050565b6000819050919050565b612204816121f1565b811461220f57600080fd5b50565b600081359050612221816121fb565b92915050565b60008060008060006060868803121561224357612242612182565b5b600086013567ffffffffffffffff81111561226157612260612187565b5b61226d8882890161219b565b9550955050602086013567ffffffffffffffff8111156122905761228f612187565b5b61229c8882890161219b565b935093505060406122af88828901612212565b9150509295509295909350565b600080602083850312156122d3576122d2612182565b5b600083013567ffffffffffffffff8111156122f1576122f0612187565b5b6122fd8582860161219b565b92509250509250929050565b60008115159050919050565b61231e81612309565b82525050565b60006020820190506123396000830184612315565b92915050565b600073ffffffffffffffffffffffffffffffffffffffff82169050919050565b600061236a8261233f565b9050919050565b61237a8161235f565b811461238557600080fd5b50565b60008135905061239781612371565b92915050565b6000602082840312156123b3576123b2612182565b5b60006123c184828501612388565b91505092915050565b600081519050919050565b600082825260208201905092915050565b6000819050602082019050919050565b600081519050919050565b600082825260208201905092915050565b60005b83811015612430578082015181840152602081019050612415565b8381111561243f576000848401525b50505050565b6000601f19601f8301169050919050565b6000612461826123f6565b61246b8185612401565b935061247b818560208601612412565b61248481612445565b840191505092915050565b600061249b8383612456565b905092915050565b6000602082019050919050565b60006124bb826123ca565b6124c581856123d5565b9350836020820285016124d7856123e6565b8060005b8581101561251357848403895281516124f4858261248f565b94506124ff836124a3565b925060208a019950506001810190506124db565b50829750879550505050505092915050565b600081519050919050565b600082825260208201905092915050565b6000819050602082019050919050565b61255a8161235f565b82525050565b600061256c8383612551565b60208301905092915050565b6000602082019050919050565b600061259082612525565b61259a8185612530565b93506125a583612541565b8060005b838110156125d65781516125bd8882612560565b97506125c883612578565b9250506001810190506125a9565b5085935050505092915050565b600060608201905081810360008301526125fd81866124b0565b905081810360208301526126118185612585565b90506126206040830184612315565b949350505050565b61263181612309565b82525050565b600082825260208201905092915050565b600061265382612525565b61265d8185612637565b935061266883612541565b8060005b838110156126995781516126808882612560565b975061268b83612578565b92505060018101905061266c565b5085935050505092915050565b60006060830160008301516126be6000860182612628565b5060208301516126d16020860182612628565b50604083015184820360408601526126e98282612648565b9150508091505092915050565b6000602082019050818103600083015261271081846126a6565b905092915050565b612721816121f1565b82525050565b600060608301600083015184820360008601526127448282612456565b91505060208301516127596020860182612718565b50604083015161276c6040860182612628565b508091505092915050565b600060208201905081810360008301526127918184612727565b905092915050565b600082825260208201905092915050565b7f48696c6c20646f6573206e6f7420657869737400000000000000000000000000600082015250565b60006127e0601383612799565b91506127eb826127aa565b602082019050919050565b6000602082019050818103600083015261280f816127d3565b9050919050565b7f46696c6520616c72656164792065786973747300000000000000000000000000600082015250565b600061284c601383612799565b915061285782612816565b602082019050919050565b6000602082019050818103600083015261287b8161283f565b9050919050565b7f43616c6c6572206973206e6f742061646d696e00000000000000000000000000600082015250565b60006128b8601383612799565b91506128c382612882565b602082019050919050565b600060208201905081810360008301526128e7816128ab565b9050919050565b7f43616c6c65722069732075736572000000000000000000000000000000000000600082015250565b6000612924600e83612799565b915061292f826128ee565b602082019050919050565b6000602082019050818103600083015261295381612917565b9050919050565b7f5573657220646f6573206e6f7420657869737400000000000000000000000000600082015250565b6000612990601383612799565b915061299b8261295a565b602082019050919050565b600060208201905081810360008301526129bf81612983565b9050919050565b7f4e487b7100000000000000000000000000000000000000000000000000000000600052602260045260246000fd5b60006002820490506001821680612a0d57607f821691505b60208210811415612a2157612a206129c6565b5b50919050565b7f5573657220616c72656164792065786973747300000000000000000000000000600082015250565b6000612a5d601383612799565b9150612a6882612a27565b602082019050919050565b60006020820190508181036000830152612a8c81612a50565b9050919050565b7f46696c6520646f6573206e6f7420657869737400000000000000000000000000600082015250565b6000612ac9601383612799565b9150612ad482612a93565b602082019050919050565b60006020820190508181036000830152612af881612abc565b9050919050565b600081905092915050565b82818337600083830152505050565b6000612b258385612aff565b9350612b32838584612b0a565b82840190509392505050565b6000612b4b828486612b19565b91508190509392505050565b7f4e487b7100000000000000000000000000000000000000000000000000000000600052601160045260246000fd5b6000612b91826121f1565b9150612b9c836121f1565b925082821015612baf57612bae612b57565b5b828203905092915050565b7f4e487b7100000000000000000000000000000000000000000000000000000000600052603260045260246000fd5b7f4e487b7100000000000000000000000000000000000000000000000000000000600052603160045260246000fd5b6000612c23826121f1565b91507fffffffffffffffffffffffffffffffffffffffffffffffffffffffffffffffff821415612c5657612c55612b57565b5b600182019050919050565b600081905092915050565b6000612c788385612c61565b9350612c85838584612b0a565b82840190509392505050565b6000612c9e828486612c6c565b91508190509392505050565b60008190508160005260206000209050919050565b60008154612ccc816129f5565b612cd68186612c61565b94506001821660008114612cf15760018114612d0257612d35565b60ff19831686528186019350612d35565b612d0b85612caa565b60005b83811015612d2d57815481890152600182019150602081019050612d0e565b838801955050505b50505092915050565b6000612d4a8284612cbf565b91508190509291505056fea2646970667358221220ac36696a90178a6ef3ac27b6bbb67dd8d87b4cba68a5e8156fc72035ecd92c9864736f6c634300080c0033",
  "immutableReferences": {},
  "source": "// SPDX-License-Identifier: UNLICENSED\npragma solidity ^0.8.12;\n\nimport \"./libraries/AccountsLibrary.sol\";\nimport \"./libraries/AntHillsLibrary.sol\";\n\ncontract Mbrk {\n    using AccountsLibrary for AccountsLibrary.Accounts;\n    using AntHillsLibrary for AntHillsLibrary.AntHills;\n\n    AccountsLibrary.Accounts accounts;\n    AntHillsLibrary.AntHills antHills;\n\n    constructor() {\n        accounts.addUser(msg.sender);\n        accounts.setAdmin(msg.sender);\n        antHills.enableHill(msg.sender);\n    }\n\n    modifier onlyAdmin() {\n        require(accounts.checkAdmin(msg.sender), \"Caller is not admin\");\n        _;\n    }\n\n    function ping() external pure {}\n\n    function createUser(address key) external onlyAdmin {\n        if (accounts.exists(key)) {\n            revert(\"User already exists\");\n        }\n\n        accounts.addUser(key);\n        antHills.enableHill(key);\n    }\n\n    function deleteUser(address key) external onlyAdmin {\n        require(msg.sender != key, \"Caller is user\");\n        accounts.resetUser(key);\n        antHills.resetHill(key);\n    }\n\n    function grantAdmin(address key) external onlyAdmin {\n        if (!accounts.exists(key)) {\n            revert(\"User does not exist\");\n        }\n        accounts.setAdmin(key);\n    }\n\n    function revokeAdmin(address key) external onlyAdmin {\n        require(msg.sender != key, \"Caller is user\");\n        accounts.resetAdmin(key);\n    }\n\n    function getUser() external view returns (User memory) {\n        User memory user = accounts.getUser(msg.sender);\n        require(user.isValid, \"User does not exist\");\n        return user;\n    }\n\n    function grantReadAccess(address key) external {\n        if (!antHills.exists(msg.sender)) {\n            revert(\"Hill does not exist\");\n        }\n        if (!accounts.exists(key)) {\n            revert(\"User does not exist\");\n        }\n        accounts.addHill(msg.sender, key);\n        antHills.addUser(key, msg.sender);\n    }\n\n    function revokeReadAccess(address key) external {\n        accounts.removeHill(msg.sender, key);\n        antHills.removeUser(key, msg.sender);\n    }\n\n    function getHill()\n        external\n        view\n        returns (string[] memory filenames, address[] memory accessList, bool isValid)\n    {\n        AntHill storage hill = antHills.getHill(msg.sender);\n        require(hill.isValid, \"Hill does not exist\");\n        return (hill.filenames, hill.accessList, hill.isValid);\n    }\n\n    function createFile(\n        string calldata filename,\n        string calldata cid,\n        uint256 filesize\n    ) external {\n        if (!antHills.exists(msg.sender)) {\n            revert(\"Hill does not exist\");\n        }\n        if (antHills.exists(filename, msg.sender)) {\n            revert(\"File already exists\");\n        }\n        antHills.storeFileMeta(filename, cid, filesize, msg.sender);\n    }\n\n    function deleteFile(string calldata filename) external {\n        antHills.resetFileMeta(filename, msg.sender);\n    }\n\n    function getFile(string calldata filename)\n        external\n        view\n        returns (File memory)\n    {\n        File memory file = antHills.loadFileMeta(filename, msg.sender);\n        require(file.isValid, \"File does not exist\");\n        return file;\n    }\n\n    function checkFileExists(string calldata filename)\n        external\n        view\n        returns (bool isValid)\n    {\n        return antHills.exists(filename, msg.sender);\n    }\n}\n",
  "sourcePath": "/Users/moubarakjeje/cs-699-dapp/smartcontract/contracts/MBRK.sol",
  "compiler": {
    "name": "solc",
    "version": "0.8.12+commit.f00d7308.Emscripten.clang"
  },
  "schemaVersion": "3.4.6",
  "updatedAt": "2022-04-17T05:01:57.775Z",
  "devdoc": {
    "kind": "dev",
    "methods": {},
    "version": 1
  },
  "userdoc": {
    "kind": "user",
    "methods": {},
    "version": 1
  }
}