{
  "contractName": "Mbrk",
  "abi": [
    {
      "inputs": [],
      "stateMutability": "nonpayable",
      "type": "constructor"
    },
    {
      "anonymous": false,
      "inputs": [
        {
          "indexed": false,
          "internalType": "address",
          "name": "libraryOwner",
          "type": "address"
        }
      ],
      "name": "LibraryUpdated",
      "type": "event"
    },
    {
      "anonymous": false,
      "inputs": [
        {
          "indexed": false,
          "internalType": "address",
          "name": "user",
          "type": "address"
        }
      ],
      "name": "UserUpdated",
      "type": "event"
    },
    {
      "inputs": [],
      "name": "ping",
      "outputs": [],
      "stateMutability": "pure",
      "type": "function",
      "constant": true
    },
    {
      "inputs": [
        {
          "internalType": "address",
          "name": "key",
          "type": "address"
        }
      ],
      "name": "createUser",
      "outputs": [],
      "stateMutability": "nonpayable",
      "type": "function"
    },
    {
      "inputs": [
        {
          "internalType": "address",
          "name": "key",
          "type": "address"
        }
      ],
      "name": "deleteUser",
      "outputs": [],
      "stateMutability": "nonpayable",
      "type": "function"
    },
    {
      "inputs": [
        {
          "internalType": "address",
          "name": "key",
          "type": "address"
        }
      ],
      "name": "grantAdmin",
      "outputs": [],
      "stateMutability": "nonpayable",
      "type": "function"
    },
    {
      "inputs": [
        {
          "internalType": "address",
          "name": "key",
          "type": "address"
        }
      ],
      "name": "revokeAdmin",
      "outputs": [],
      "stateMutability": "nonpayable",
      "type": "function"
    },
    {
      "inputs": [],
      "name": "getUser",
      "outputs": [
        {
          "components": [
            {
              "internalType": "bool",
              "name": "isValid",
              "type": "bool"
            },
            {
              "internalType": "bool",
              "name": "isAdmin",
              "type": "bool"
            },
            {
              "internalType": "address[]",
              "name": "accessList",
              "type": "address[]"
            }
          ],
          "internalType": "struct User",
          "name": "",
          "type": "tuple"
        }
      ],
      "stateMutability": "view",
      "type": "function",
      "constant": true
    },
    {
      "inputs": [
        {
          "internalType": "address",
          "name": "key",
          "type": "address"
        }
      ],
      "name": "grantReadAccess",
      "outputs": [],
      "stateMutability": "nonpayable",
      "type": "function"
    },
    {
      "inputs": [
        {
          "internalType": "address",
          "name": "key",
          "type": "address"
        }
      ],
      "name": "revokeReadAccess",
      "outputs": [],
      "stateMutability": "nonpayable",
      "type": "function"
    },
    {
      "inputs": [],
      "name": "getHill",
      "outputs": [
        {
          "internalType": "address",
          "name": "hillOwner",
          "type": "address"
        },
        {
          "internalType": "string[]",
          "name": "filenames",
          "type": "string[]"
        },
        {
          "internalType": "address[]",
          "name": "owners",
          "type": "address[]"
        },
        {
          "internalType": "address[]",
          "name": "accessList",
          "type": "address[]"
        },
        {
          "internalType": "bool",
          "name": "isValid",
          "type": "bool"
        }
      ],
      "stateMutability": "view",
      "type": "function",
      "constant": true
    },
    {
      "inputs": [
        {
          "internalType": "string",
          "name": "filename",
          "type": "string"
        },
        {
          "internalType": "string",
          "name": "cid",
          "type": "string"
        },
        {
          "internalType": "uint256",
          "name": "filesize",
          "type": "uint256"
        }
      ],
      "name": "createFile",
      "outputs": [],
      "stateMutability": "nonpayable",
      "type": "function"
    },
    {
      "inputs": [
        {
          "internalType": "string",
          "name": "filename",
          "type": "string"
        }
      ],
      "name": "deleteFile",
      "outputs": [],
      "stateMutability": "nonpayable",
      "type": "function"
    },
    {
      "inputs": [
        {
          "internalType": "string",
          "name": "filename",
          "type": "string"
        }
      ],
      "name": "getFile",
      "outputs": [
        {
          "components": [
            {
              "internalType": "string",
              "name": "cid",
              "type": "string"
            },
            {
              "internalType": "uint256",
              "name": "size",
              "type": "uint256"
            },
            {
              "internalType": "bool",
              "name": "isValid",
              "type": "bool"
            }
          ],
          "internalType": "struct File",
          "name": "",
          "type": "tuple"
        }
      ],
      "stateMutability": "view",
      "type": "function",
      "constant": true
    },
    {
      "inputs": [
        {
          "internalType": "string",
          "name": "filename",
          "type": "string"
        }
      ],
      "name": "checkFileExists",
      "outputs": [
        {
          "internalType": "bool",
          "name": "isValid",
          "type": "bool"
        }
      ],
      "stateMutability": "view",
      "type": "function",
      "constant": true
    }
  ],
  "bytecode": "0x60806040523480156200001157600080fd5b506200002d3360006200006960201b6200112f1790919060201c565b62000048336000620000ca60201b620011901790919060201c565b620000633360016200012b60201b620011f11790919060201c565b6200018c565b60018260000160008373ffffffffffffffffffffffffffffffffffffffff1673ffffffffffffffffffffffffffffffffffffffff16815260200190815260200160002060000160006101000a81548160ff0219169083151502179055505050565b60018260000160008373ffffffffffffffffffffffffffffffffffffffff1673ffffffffffffffffffffffffffffffffffffffff16815260200190815260200160002060000160016101000a81548160ff0219169083151502179055505050565b60018260000160008373ffffffffffffffffffffffffffffffffffffffff1673ffffffffffffffffffffffffffffffffffffffff16815260200190815260200160002060030160006101000a81548160ff0219169083151502179055505050565b6137ab806200019c6000396000f3fe608060405234801561001057600080fd5b50600436106100cf5760003560e01c80635c60f2261161008c578063a991005411610066578063a9910054146101da578063b42e17fb146101f6578063cdd8761814610212578063e0876aa81461022e576100cf565b80635c60f2261461017e578063796f21521461019a578063832880e7146101bc576100cf565b80630c1378f4146100d457806327203b58146100f05780632d3456701461012057806335bb3e161461013c578063425600b8146101585780635c36b18614610174575b600080fd5b6100ee60048036038101906100e99190612b09565b61025e565b005b61010a60048036038101906101059190612b9e565b610365565b6040516101179190612c06565b60405180910390f35b61013a60048036038101906101359190612c7f565b610387565b005b61015660048036038101906101519190612c7f565b610497565b005b610172600480360381019061016d9190612c7f565b61058b565b005b61017c610628565b005b61019860048036038101906101939190612c7f565b61062a565b005b6101a2610785565b6040516101b3959493929190612ed4565b60405180910390f35b6101c4610b88565b6040516101d1919061300a565b60405180910390f35b6101f460048036038101906101ef9190612b9e565b610ccf565b005b610210600480360381019061020b9190612c7f565b610d22565b005b61022c60048036038101906102279190612c7f565b610ebb565b005b61024860048036038101906102439190612b9e565b610ffb565b604051610255919061308b565b60405180910390f35b61027233600161125290919063ffffffff16565b6102b1576040517f08c379a00000000000000000000000000000000000000000000000000000000081526004016102a89061310a565b60405180910390fd5b6102c985853360016112ae909392919063ffffffff16565b15610309576040517f08c379a000000000000000000000000000000000000000000000000000000000815260040161030090613176565b60405180910390fd5b610327858585858533600161132d909695949392919063ffffffff16565b7f5519456d5d0a19f0515d57873a1c8aec9e5f35bd6c1eb6324f56d2a1e9d8a041336040516103569190613196565b60405180910390a15050505050565b600061037f83833360016112ae909392919063ffffffff16565b905092915050565b61039b33600061151390919063ffffffff16565b6103da576040517f08c379a00000000000000000000000000000000000000000000000000000000081526004016103d1906131fd565b60405180910390fd5b8073ffffffffffffffffffffffffffffffffffffffff163373ffffffffffffffffffffffffffffffffffffffff161415610449576040517f08c379a000000000000000000000000000000000000000000000000000000000815260040161044090613269565b60405180910390fd5b61045d8160006115c990919063ffffffff16565b7f0163b5f10e25c839f35e6f2b201b31e88e17f49e6956232de5d2e6bbae3b78b88160405161048c9190613196565b60405180910390a150565b6104ab33600061151390919063ffffffff16565b6104ea576040517f08c379a00000000000000000000000000000000000000000000000000000000081526004016104e1906131fd565b60405180910390fd5b6104fe81600061162a90919063ffffffff16565b61053d576040517f08c379a0000000000000000000000000000000000000000000000000000000008152600401610534906132d5565b60405180910390fd5b61055181600061119090919063ffffffff16565b7f0163b5f10e25c839f35e6f2b201b31e88e17f49e6956232de5d2e6bbae3b78b8816040516105809190613196565b60405180910390a150565b6105a1338260006116869092919063ffffffff16565b6105b7813360016118ab9092919063ffffffff16565b7f5519456d5d0a19f0515d57873a1c8aec9e5f35bd6c1eb6324f56d2a1e9d8a041336040516105e69190613196565b60405180910390a17f0163b5f10e25c839f35e6f2b201b31e88e17f49e6956232de5d2e6bbae3b78b88160405161061d9190613196565b60405180910390a150565b565b61063e33600061151390919063ffffffff16565b61067d576040517f08c379a0000000000000000000000000000000000000000000000000000000008152600401610674906131fd565b60405180910390fd5b8073ffffffffffffffffffffffffffffffffffffffff163373ffffffffffffffffffffffffffffffffffffffff1614156106ec576040517f08c379a00000000000000000000000000000000000000000000000000000000081526004016106e390613269565b60405180910390fd5b610700816000611ad090919063ffffffff16565b610714816001611bcc90919063ffffffff16565b7f0163b5f10e25c839f35e6f2b201b31e88e17f49e6956232de5d2e6bbae3b78b8816040516107439190613196565b60405180910390a17f5519456d5d0a19f0515d57873a1c8aec9e5f35bd6c1eb6324f56d2a1e9d8a0418160405161077a9190613196565b60405180910390a150565b600060608060606000806107a3336001611c7d90919063ffffffff16565b90508060030160009054906101000a900460ff166107f6576040517f08c379a00000000000000000000000000000000000000000000000000000000081526004016107ed9061310a565b60405180910390fd5b600081600101805480602002602001604051908101604052809291908181526020016000905b828210156108c857838290600052602060002001805461083b90613324565b80601f016020809104026020016040519081016040528092919081815260200182805461086790613324565b80156108b45780601f10610889576101008083540402835291602001916108b4565b820191906000526020600020905b81548152906001019060200180831161089757829003601f168201915b50505050508152602001906001019061081c565b50505050905060006108db825133611cc8565b905060006108f3336000611d8f90919063ffffffff16565b905060005b8160010180549050811015610ad157600061095d83600101838154811061092257610921613356565b5b9060005260206000200160009054906101000a900473ffffffffffffffffffffffffffffffffffffffff166001611c7d90919063ffffffff16565b90508060030160009054906101000a900460ff1661097b5750610abe565b610a588582600101805480602002602001604051908101604052809291908181526020016000905b82821015610a4f5783829060005260206000200180546109c290613324565b80601f01602080910402602001604051908101604052809291908181526020018280546109ee90613324565b8015610a3b5780601f10610a1057610100808354040283529160200191610a3b565b820191906000526020600020905b815481529060010190602001808311610a1e57829003601f168201915b5050505050815260200190600101906109a3565b50505050611dda565b94506000610aad8260010180549050856001018581548110610a7d57610a7c613356565b5b9060005260206000200160009054906101000a900473ffffffffffffffffffffffffffffffffffffffff16611cc8565b9050610ab98582611f05565b945050505b8080610ac9906133b4565b9150506108f8565b50338383866000018760030160009054906101000a900460ff1681805480602002602001604051908101604052809291908181526020018280548015610b6c57602002820191906000526020600020905b8160009054906101000a900473ffffffffffffffffffffffffffffffffffffffff1673ffffffffffffffffffffffffffffffffffffffff1681526020019060010190808311610b22575b5050505050915098509850985098509850505050509091929394565b610b9061288b565b6000610ba6336000611d8f90919063ffffffff16565b90508060000160009054906101000a900460ff16610bf9576040517f08c379a0000000000000000000000000000000000000000000000000000000008152600401610bf0906132d5565b60405180910390fd5b806040518060600160405290816000820160009054906101000a900460ff161515151581526020016000820160019054906101000a900460ff1615151515815260200160018201805480602002602001604051908101604052809291908181526020018280548015610cc057602002820191906000526020600020905b8160009054906101000a900473ffffffffffffffffffffffffffffffffffffffff1673ffffffffffffffffffffffffffffffffffffffff1681526020019060010190808311610c76575b50505050508152505091505090565b610ce78282336001612089909392919063ffffffff16565b7f5519456d5d0a19f0515d57873a1c8aec9e5f35bd6c1eb6324f56d2a1e9d8a04133604051610d169190613196565b60405180910390a15050565b610d3633600161125290919063ffffffff16565b610d75576040517f08c379a0000000000000000000000000000000000000000000000000000000008152600401610d6c9061310a565b60405180910390fd5b610d8b813360016122e39092919063ffffffff16565b15610dcb576040517f08c379a0000000000000000000000000000000000000000000000000000000008152600401610dc290613449565b60405180910390fd5b610ddf81600061162a90919063ffffffff16565b610e1e576040517f08c379a0000000000000000000000000000000000000000000000000000000008152600401610e15906132d5565b60405180910390fd5b610e34338260006123479092919063ffffffff16565b610e4a813360016123f19092919063ffffffff16565b7f5519456d5d0a19f0515d57873a1c8aec9e5f35bd6c1eb6324f56d2a1e9d8a04133604051610e799190613196565b60405180910390a17f0163b5f10e25c839f35e6f2b201b31e88e17f49e6956232de5d2e6bbae3b78b881604051610eb09190613196565b60405180910390a150565b610ecf33600061151390919063ffffffff16565b610f0e576040517f08c379a0000000000000000000000000000000000000000000000000000000008152600401610f05906131fd565b60405180910390fd5b610f2281600061162a90919063ffffffff16565b15610f62576040517f08c379a0000000000000000000000000000000000000000000000000000000008152600401610f59906134b5565b60405180910390fd5b610f7681600061112f90919063ffffffff16565b610f8a8160016111f190919063ffffffff16565b7f5519456d5d0a19f0515d57873a1c8aec9e5f35bd6c1eb6324f56d2a1e9d8a04181604051610fb99190613196565b60405180910390a17f0163b5f10e25c839f35e6f2b201b31e88e17f49e6956232de5d2e6bbae3b78b881604051610ff09190613196565b60405180910390a150565b6110036128b0565b600061101d848433600161249b909392919063ffffffff16565b60405180606001604052908160008201805461103890613324565b80601f016020809104026020016040519081016040528092919081815260200182805461106490613324565b80156110b15780601f10611086576101008083540402835291602001916110b1565b820191906000526020600020905b81548152906001019060200180831161109457829003601f168201915b50505050508152602001600182015481526020016002820160009054906101000a900460ff16151515158152505090508060400151611125576040517f08c379a000000000000000000000000000000000000000000000000000000000815260040161111c90613521565b60405180910390fd5b8091505092915050565b60018260000160008373ffffffffffffffffffffffffffffffffffffffff1673ffffffffffffffffffffffffffffffffffffffff16815260200190815260200160002060000160006101000a81548160ff0219169083151502179055505050565b60018260000160008373ffffffffffffffffffffffffffffffffffffffff1673ffffffffffffffffffffffffffffffffffffffff16815260200190815260200160002060000160016101000a81548160ff0219169083151502179055505050565b60018260000160008373ffffffffffffffffffffffffffffffffffffffff1673ffffffffffffffffffffffffffffffffffffffff16815260200190815260200160002060030160006101000a81548160ff0219169083151502179055505050565b60008260000160008373ffffffffffffffffffffffffffffffffffffffff1673ffffffffffffffffffffffffffffffffffffffff16815260200190815260200160002060030160009054906101000a900460ff16905092915050565b60008460000160008373ffffffffffffffffffffffffffffffffffffffff1673ffffffffffffffffffffffffffffffffffffffff1681526020019081526020016000206002018484604051611304929190613580565b908152602001604051809103902060020160009054906101000a900460ff169050949350505050565b8660000160008273ffffffffffffffffffffffffffffffffffffffff1673ffffffffffffffffffffffffffffffffffffffff1681526020019081526020016000206001018686909180600181540180825580915050600190039060005260206000200160009091929091929091929091925091906113ac9291906128d3565b5083838860000160008473ffffffffffffffffffffffffffffffffffffffff1673ffffffffffffffffffffffffffffffffffffffff1681526020019081526020016000206002018888604051611403929190613580565b908152602001604051809103902060000191906114219291906128d3565b50818760000160008373ffffffffffffffffffffffffffffffffffffffff1673ffffffffffffffffffffffffffffffffffffffff1681526020019081526020016000206002018787604051611477929190613580565b90815260200160405180910390206001018190555060018760000160008373ffffffffffffffffffffffffffffffffffffffff1673ffffffffffffffffffffffffffffffffffffffff16815260200190815260200160002060020187876040516114e2929190613580565b908152602001604051809103902060020160006101000a81548160ff02191690831515021790555050505050505050565b60008260000160008373ffffffffffffffffffffffffffffffffffffffff1673ffffffffffffffffffffffffffffffffffffffff16815260200190815260200160002060000160019054906101000a900460ff1680156115c157508260000160008373ffffffffffffffffffffffffffffffffffffffff1673ffffffffffffffffffffffffffffffffffffffff16815260200190815260200160002060000160009054906101000a900460ff165b905092915050565b60008260000160008373ffffffffffffffffffffffffffffffffffffffff1673ffffffffffffffffffffffffffffffffffffffff16815260200190815260200160002060000160016101000a81548160ff0219169083151502179055505050565b60008260000160008373ffffffffffffffffffffffffffffffffffffffff1673ffffffffffffffffffffffffffffffffffffffff16815260200190815260200160002060000160009054906101000a900460ff16905092915050565b60008360000160008373ffffffffffffffffffffffffffffffffffffffff1673ffffffffffffffffffffffffffffffffffffffff16815260200190815260200160002060010180549050905060006116df858585612509565b90508181106116ef5750506118a6565b8460000160008473ffffffffffffffffffffffffffffffffffffffff1673ffffffffffffffffffffffffffffffffffffffff1681526020019081526020016000206001016001836117409190613599565b8154811061175157611750613356565b5b9060005260206000200160009054906101000a900473ffffffffffffffffffffffffffffffffffffffff168560000160008573ffffffffffffffffffffffffffffffffffffffff1673ffffffffffffffffffffffffffffffffffffffff16815260200190815260200160002060010182815481106117d2576117d1613356565b5b9060005260206000200160006101000a81548173ffffffffffffffffffffffffffffffffffffffff021916908373ffffffffffffffffffffffffffffffffffffffff1602179055508460000160008473ffffffffffffffffffffffffffffffffffffffff1673ffffffffffffffffffffffffffffffffffffffff16815260200190815260200160002060010180548061186e5761186d6135cd565b5b6001900381819060005260206000200160006101000a81549073ffffffffffffffffffffffffffffffffffffffff0219169055905550505b505050565b60008360000160008373ffffffffffffffffffffffffffffffffffffffff1673ffffffffffffffffffffffffffffffffffffffff168152602001908152602001600020600001805490509050600061190485848661263f565b9050818110611914575050611acb565b8460000160008473ffffffffffffffffffffffffffffffffffffffff1673ffffffffffffffffffffffffffffffffffffffff1681526020019081526020016000206000016001836119659190613599565b8154811061197657611975613356565b5b9060005260206000200160009054906101000a900473ffffffffffffffffffffffffffffffffffffffff168560000160008573ffffffffffffffffffffffffffffffffffffffff1673ffffffffffffffffffffffffffffffffffffffff16815260200190815260200160002060000182815481106119f7576119f6613356565b5b9060005260206000200160006101000a81548173ffffffffffffffffffffffffffffffffffffffff021916908373ffffffffffffffffffffffffffffffffffffffff1602179055508460000160008473ffffffffffffffffffffffffffffffffffffffff1673ffffffffffffffffffffffffffffffffffffffff168152602001908152602001600020600001805480611a9357611a926135cd565b5b6001900381819060005260206000200160006101000a81549073ffffffffffffffffffffffffffffffffffffffff0219169055905550505b505050565b8160000160008273ffffffffffffffffffffffffffffffffffffffff1673ffffffffffffffffffffffffffffffffffffffff16815260200190815260200160002060000160006101000a81549060ff02191690558160000160008273ffffffffffffffffffffffffffffffffffffffff1673ffffffffffffffffffffffffffffffffffffffff16815260200190815260200160002060000160016101000a81549060ff02191690558160000160008273ffffffffffffffffffffffffffffffffffffffff1673ffffffffffffffffffffffffffffffffffffffff1681526020019081526020016000206001016000611bc89190612959565b5050565b60008260000160008373ffffffffffffffffffffffffffffffffffffffff1673ffffffffffffffffffffffffffffffffffffffff16815260200190815260200160002060030160006101000a81548160ff0219169083151502179055508160000160008273ffffffffffffffffffffffffffffffffffffffff1673ffffffffffffffffffffffffffffffffffffffff1681526020019081526020016000206000016000611c799190612959565b5050565b60008260000160008373ffffffffffffffffffffffffffffffffffffffff1673ffffffffffffffffffffffffffffffffffffffff168152602001908152602001600020905092915050565b606060008367ffffffffffffffff811115611ce657611ce56135fc565b5b604051908082528060200260200182016040528015611d145781602001602082028036833780820191505090505b50905060005b8151811015611d845783828281518110611d3757611d36613356565b5b602002602001019073ffffffffffffffffffffffffffffffffffffffff16908173ffffffffffffffffffffffffffffffffffffffff16815250508080611d7c906133b4565b915050611d1a565b508091505092915050565b60008260000160008373ffffffffffffffffffffffffffffffffffffffff1673ffffffffffffffffffffffffffffffffffffffff168152602001908152602001600020905092915050565b6060600082518451611dec919061362b565b67ffffffffffffffff811115611e0557611e046135fc565b5b604051908082528060200260200182016040528015611e3857816020015b6060815260200190600190039081611e235790505b50905060005b8451811015611e9357848181518110611e5a57611e59613356565b5b6020026020010151828281518110611e7557611e74613356565b5b60200260200101819052508080611e8b906133b4565b915050611e3e565b60005b8451811015611ef957848181518110611eb257611eb1613356565b5b6020026020010151838381518110611ecd57611ecc613356565b5b60200260200101819052508080611ee3906133b4565b9150508180611ef1906133b4565b925050611e96565b82935050505092915050565b6060600082518451611f17919061362b565b67ffffffffffffffff811115611f3057611f2f6135fc565b5b604051908082528060200260200182016040528015611f5e5781602001602082028036833780820191505090505b50905060005b8451811015611fe857848181518110611f8057611f7f613356565b5b6020026020010151828281518110611f9b57611f9a613356565b5b602002602001019073ffffffffffffffffffffffffffffffffffffffff16908173ffffffffffffffffffffffffffffffffffffffff16815250508080611fe0906133b4565b915050611f64565b60005b845181101561207d5784818151811061200757612006613356565b5b602002602001015183838151811061202257612021613356565b5b602002602001019073ffffffffffffffffffffffffffffffffffffffff16908173ffffffffffffffffffffffffffffffffffffffff16815250508080612067906133b4565b9150508180612075906133b4565b925050611feb565b82935050505092915050565b60008460000160008373ffffffffffffffffffffffffffffffffffffffff1673ffffffffffffffffffffffffffffffffffffffff16815260200190815260200160002060010180549050905060006120e386868686612775565b90508181106120f35750506122dd565b8560000160008473ffffffffffffffffffffffffffffffffffffffff1673ffffffffffffffffffffffffffffffffffffffff1681526020019081526020016000206001016001836121449190613599565b8154811061215557612154613356565b5b906000526020600020018660000160008573ffffffffffffffffffffffffffffffffffffffff1673ffffffffffffffffffffffffffffffffffffffff16815260200190815260200160002060010182815481106121b5576121b4613356565b5b906000526020600020019080546121cb90613324565b6121d692919061297a565b508560000160008473ffffffffffffffffffffffffffffffffffffffff1673ffffffffffffffffffffffffffffffffffffffff16815260200190815260200160002060010180548061222b5761222a6135cd565b5b6001900381819060005260206000200160006122479190612a07565b90558560000160008473ffffffffffffffffffffffffffffffffffffffff1673ffffffffffffffffffffffffffffffffffffffff168152602001908152602001600020600201858560405161229d929190613580565b9081526020016040518091039020600080820160006122bc9190612a07565b60018201600090556002820160006101000a81549060ff0219169055505050505b50505050565b6000806122f185858561263f565b90508460000160008473ffffffffffffffffffffffffffffffffffffffff1673ffffffffffffffffffffffffffffffffffffffff1681526020019081526020016000206000018054905081109150509392505050565b8260000160008273ffffffffffffffffffffffffffffffffffffffff1673ffffffffffffffffffffffffffffffffffffffff168152602001908152602001600020600101829080600181540180825580915050600190039060005260206000200160009091909190916101000a81548173ffffffffffffffffffffffffffffffffffffffff021916908373ffffffffffffffffffffffffffffffffffffffff160217905550505050565b8260000160008273ffffffffffffffffffffffffffffffffffffffff1673ffffffffffffffffffffffffffffffffffffffff168152602001908152602001600020600001829080600181540180825580915050600190039060005260206000200160009091909190916101000a81548173ffffffffffffffffffffffffffffffffffffffff021916908373ffffffffffffffffffffffffffffffffffffffff160217905550505050565b60008460000160008373ffffffffffffffffffffffffffffffffffffffff1673ffffffffffffffffffffffffffffffffffffffff16815260200190815260200160002060020184846040516124f1929190613580565b90815260200160405180910390209050949350505050565b6000808460000160008473ffffffffffffffffffffffffffffffffffffffff1673ffffffffffffffffffffffffffffffffffffffff16815260200190815260200160002060010180549050905060005b81811015612632578473ffffffffffffffffffffffffffffffffffffffff168660000160008673ffffffffffffffffffffffffffffffffffffffff1673ffffffffffffffffffffffffffffffffffffffff16815260200190815260200160002060010182815481106125ce576125cd613356565b5b9060005260206000200160009054906101000a900473ffffffffffffffffffffffffffffffffffffffff1673ffffffffffffffffffffffffffffffffffffffff16141561261f578092505050612638565b808061262a906133b4565b915050612559565b50809150505b9392505050565b6000808460000160008473ffffffffffffffffffffffffffffffffffffffff1673ffffffffffffffffffffffffffffffffffffffff16815260200190815260200160002060000180549050905060005b81811015612768578473ffffffffffffffffffffffffffffffffffffffff168660000160008673ffffffffffffffffffffffffffffffffffffffff1673ffffffffffffffffffffffffffffffffffffffff168152602001908152602001600020600001828154811061270457612703613356565b5b9060005260206000200160009054906101000a900473ffffffffffffffffffffffffffffffffffffffff1673ffffffffffffffffffffffffffffffffffffffff16141561275557809250505061276e565b8080612760906133b4565b91505061268f565b50809150505b9392505050565b6000808560000160008473ffffffffffffffffffffffffffffffffffffffff1673ffffffffffffffffffffffffffffffffffffffff16815260200190815260200160002060010180549050905060005b8181101561287d5785856040516127dd9291906136b1565b60405180910390208760000160008673ffffffffffffffffffffffffffffffffffffffff1673ffffffffffffffffffffffffffffffffffffffff168152602001908152602001600020600101828154811061283b5761283a613356565b5b90600052602060002001604051612852919061375e565b6040518091039020141561286a578092505050612883565b8080612875906133b4565b9150506127c5565b50809150505b949350505050565b6040518060600160405280600015158152602001600015158152602001606081525090565b604051806060016040528060608152602001600081526020016000151581525090565b8280546128df90613324565b90600052602060002090601f0160209004810192826129015760008555612948565b82601f1061291a57803560ff1916838001178555612948565b82800160010185558215612948579182015b8281111561294757823582559160200191906001019061292c565b5b5090506129559190612a47565b5090565b50805460008255906000526020600020908101906129779190612a47565b50565b82805461298690613324565b90600052602060002090601f0160209004810192826129a857600085556129f6565b82601f106129b957805485556129f6565b828001600101855582156129f657600052602060002091601f016020900482015b828111156129f55782548255916001019190600101906129da565b5b509050612a039190612a47565b5090565b508054612a1390613324565b6000825580601f10612a255750612a44565b601f016020900490600052602060002090810190612a439190612a47565b5b50565b5b80821115612a60576000816000905550600101612a48565b5090565b600080fd5b600080fd5b600080fd5b600080fd5b600080fd5b60008083601f840112612a9357612a92612a6e565b5b8235905067ffffffffffffffff811115612ab057612aaf612a73565b5b602083019150836001820283011115612acc57612acb612a78565b5b9250929050565b6000819050919050565b612ae681612ad3565b8114612af157600080fd5b50565b600081359050612b0381612add565b92915050565b600080600080600060608688031215612b2557612b24612a64565b5b600086013567ffffffffffffffff811115612b4357612b42612a69565b5b612b4f88828901612a7d565b9550955050602086013567ffffffffffffffff811115612b7257612b71612a69565b5b612b7e88828901612a7d565b93509350506040612b9188828901612af4565b9150509295509295909350565b60008060208385031215612bb557612bb4612a64565b5b600083013567ffffffffffffffff811115612bd357612bd2612a69565b5b612bdf85828601612a7d565b92509250509250929050565b60008115159050919050565b612c0081612beb565b82525050565b6000602082019050612c1b6000830184612bf7565b92915050565b600073ffffffffffffffffffffffffffffffffffffffff82169050919050565b6000612c4c82612c21565b9050919050565b612c5c81612c41565b8114612c6757600080fd5b50565b600081359050612c7981612c53565b92915050565b600060208284031215612c9557612c94612a64565b5b6000612ca384828501612c6a565b91505092915050565b612cb581612c41565b82525050565b600081519050919050565b600082825260208201905092915050565b6000819050602082019050919050565b600081519050919050565b600082825260208201905092915050565b60005b83811015612d21578082015181840152602081019050612d06565b83811115612d30576000848401525b50505050565b6000601f19601f8301169050919050565b6000612d5282612ce7565b612d5c8185612cf2565b9350612d6c818560208601612d03565b612d7581612d36565b840191505092915050565b6000612d8c8383612d47565b905092915050565b6000602082019050919050565b6000612dac82612cbb565b612db68185612cc6565b935083602082028501612dc885612cd7565b8060005b85811015612e045784840389528151612de58582612d80565b9450612df083612d94565b925060208a01995050600181019050612dcc565b50829750879550505050505092915050565b600081519050919050565b600082825260208201905092915050565b6000819050602082019050919050565b612e4b81612c41565b82525050565b6000612e5d8383612e42565b60208301905092915050565b6000602082019050919050565b6000612e8182612e16565b612e8b8185612e21565b9350612e9683612e32565b8060005b83811015612ec7578151612eae8882612e51565b9750612eb983612e69565b925050600181019050612e9a565b5085935050505092915050565b600060a082019050612ee96000830188612cac565b8181036020830152612efb8187612da1565b90508181036040830152612f0f8186612e76565b90508181036060830152612f238185612e76565b9050612f326080830184612bf7565b9695505050505050565b612f4581612beb565b82525050565b600082825260208201905092915050565b6000612f6782612e16565b612f718185612f4b565b9350612f7c83612e32565b8060005b83811015612fad578151612f948882612e51565b9750612f9f83612e69565b925050600181019050612f80565b5085935050505092915050565b6000606083016000830151612fd26000860182612f3c565b506020830151612fe56020860182612f3c565b5060408301518482036040860152612ffd8282612f5c565b9150508091505092915050565b600060208201905081810360008301526130248184612fba565b905092915050565b61303581612ad3565b82525050565b600060608301600083015184820360008601526130588282612d47565b915050602083015161306d602086018261302c565b5060408301516130806040860182612f3c565b508091505092915050565b600060208201905081810360008301526130a5818461303b565b905092915050565b600082825260208201905092915050565b7f48696c6c20646f6573206e6f7420657869737400000000000000000000000000600082015250565b60006130f46013836130ad565b91506130ff826130be565b602082019050919050565b60006020820190508181036000830152613123816130e7565b9050919050565b7f46696c6520616c72656164792065786973747300000000000000000000000000600082015250565b60006131606013836130ad565b915061316b8261312a565b602082019050919050565b6000602082019050818103600083015261318f81613153565b9050919050565b60006020820190506131ab6000830184612cac565b92915050565b7f43616c6c6572206973206e6f742061646d696e00000000000000000000000000600082015250565b60006131e76013836130ad565b91506131f2826131b1565b602082019050919050565b60006020820190508181036000830152613216816131da565b9050919050565b7f43616c6c65722069732075736572000000000000000000000000000000000000600082015250565b6000613253600e836130ad565b915061325e8261321d565b602082019050919050565b6000602082019050818103600083015261328281613246565b9050919050565b7f5573657220646f6573206e6f7420657869737400000000000000000000000000600082015250565b60006132bf6013836130ad565b91506132ca82613289565b602082019050919050565b600060208201905081810360008301526132ee816132b2565b9050919050565b7f4e487b7100000000000000000000000000000000000000000000000000000000600052602260045260246000fd5b6000600282049050600182168061333c57607f821691505b602082108114156133505761334f6132f5565b5b50919050565b7f4e487b7100000000000000000000000000000000000000000000000000000000600052603260045260246000fd5b7f4e487b7100000000000000000000000000000000000000000000000000000000600052601160045260246000fd5b60006133bf82612ad3565b91507fffffffffffffffffffffffffffffffffffffffffffffffffffffffffffffffff8214156133f2576133f1613385565b5b600182019050919050565b7f5573657220616c72656164792068617320616363657373000000000000000000600082015250565b60006134336017836130ad565b915061343e826133fd565b602082019050919050565b6000602082019050818103600083015261346281613426565b9050919050565b7f5573657220616c72656164792065786973747300000000000000000000000000600082015250565b600061349f6013836130ad565b91506134aa82613469565b602082019050919050565b600060208201905081810360008301526134ce81613492565b9050919050565b7f46696c6520646f6573206e6f7420657869737400000000000000000000000000600082015250565b600061350b6013836130ad565b9150613516826134d5565b602082019050919050565b6000602082019050818103600083015261353a816134fe565b9050919050565b600081905092915050565b82818337600083830152505050565b60006135678385613541565b935061357483858461354c565b82840190509392505050565b600061358d82848661355b565b91508190509392505050565b60006135a482612ad3565b91506135af83612ad3565b9250828210156135c2576135c1613385565b5b828203905092915050565b7f4e487b7100000000000000000000000000000000000000000000000000000000600052603160045260246000fd5b7f4e487b7100000000000000000000000000000000000000000000000000000000600052604160045260246000fd5b600061363682612ad3565b915061364183612ad3565b9250827fffffffffffffffffffffffffffffffffffffffffffffffffffffffffffffffff0382111561367657613675613385565b5b828201905092915050565b600081905092915050565b60006136988385613681565b93506136a583858461354c565b82840190509392505050565b60006136be82848661368c565b91508190509392505050565b60008190508160005260206000209050919050565b600081546136ec81613324565b6136f68186613681565b94506001821660008114613711576001811461372257613755565b60ff19831686528186019350613755565b61372b856136ca565b60005b8381101561374d5781548189015260018201915060208101905061372e565b838801955050505b50505092915050565b600061376a82846136df565b91508190509291505056fea26469706673582212201b1572225481226fc6d53ffde41e6631fc0452c33c8de0212e2ab35fc26a62cf64736f6c634300080c0033",
  "immutableReferences": {},
  "source": "// SPDX-License-Identifier: UNLICENSED\npragma solidity ^0.8.12;\n\nimport \"./libraries/AccountsLibrary.sol\";\nimport \"./libraries/AntHillsLibrary.sol\";\n\ncontract Mbrk {\n    using AccountsLibrary for AccountsLibrary.Accounts;\n    using AntHillsLibrary for AntHillsLibrary.AntHills;\n\n    AccountsLibrary.Accounts accounts;\n    AntHillsLibrary.AntHills antHills;\n\n    event LibraryUpdated(\n        address libraryOwner\n    );\n\n    event UserUpdated(\n        address user\n    );\n\n    constructor() {\n        accounts.addUser(msg.sender);\n        accounts.setAdmin(msg.sender);\n        antHills.enableHill(msg.sender);\n    }\n\n    modifier onlyAdmin() {\n        require(accounts.checkAdmin(msg.sender), \"Caller is not admin\");\n        _;\n    }\n\n    function ping() external pure {}\n\n    function createUser(address key) external onlyAdmin {\n        if (accounts.exists(key)) {\n            revert(\"User already exists\");\n        }\n\n        accounts.addUser(key);\n        antHills.enableHill(key);\n\n        emit LibraryUpdated(key);\n        emit UserUpdated(key);\n    }\n\n    function deleteUser(address key) external onlyAdmin {\n        require(msg.sender != key, \"Caller is user\");\n        accounts.resetUser(key);\n        antHills.resetHill(key);\n\n        emit UserUpdated(key);\n        emit LibraryUpdated(key);\n    }\n\n    function grantAdmin(address key) external onlyAdmin {\n        if (!accounts.exists(key)) {\n            revert(\"User does not exist\");\n        }\n        accounts.setAdmin(key);\n\n        emit UserUpdated(key);\n    }\n\n    function revokeAdmin(address key) external onlyAdmin {\n        require(msg.sender != key, \"Caller is user\");\n        accounts.resetAdmin(key);\n\n        emit UserUpdated(key);\n    }\n\n    function getUser() external view returns (User memory) {\n        User storage user = accounts.getUser(msg.sender);\n        require(user.isValid, \"User does not exist\");\n        return user;\n    }\n\n    function grantReadAccess(address key) external {\n        if (!antHills.exists(msg.sender)) {\n            revert(\"Hill does not exist\");\n        }\n        if(antHills.exists(key,msg.sender)){\n            revert(\"User already has access\");\n        }\n        if (!accounts.exists(key)) {\n            revert(\"User does not exist\");\n        }\n\n        accounts.addHill(msg.sender, key);\n        antHills.addUser(key, msg.sender);\n\n        emit LibraryUpdated(msg.sender);\n        emit UserUpdated(key);\n    }\n\n    function revokeReadAccess(address key) external {\n        accounts.removeHill(msg.sender, key);\n        antHills.removeUser(key, msg.sender);\n\n        emit LibraryUpdated(msg.sender);\n        emit UserUpdated(key);\n    }\n\n    function getHill()\n        external\n        view\n        returns (\n            address hillOwner,\n            string[] memory filenames,\n            address[] memory owners,\n            address[] memory accessList,\n            bool isValid\n        )\n    {\n        AntHill storage hill = antHills.getHill(msg.sender);\n        require(hill.isValid, \"Hill does not exist\");\n\n        string[] memory allFilenames = hill.filenames;\n        address[] memory allOwners = fillAddressArray(\n            allFilenames.length,\n            msg.sender\n        );\n        User storage user = accounts.getUser(msg.sender);\n\n        for (uint256 i = 0; i < user.accessList.length; i++) {\n            AntHill storage otherHill = antHills.getHill(user.accessList[i]);\n            if (!otherHill.isValid) {\n                continue;\n            }\n            allFilenames = concatenateStringArrays(\n                allFilenames,\n                otherHill.filenames\n            );\n            address[] memory otherOwnerArr = fillAddressArray(\n                otherHill.filenames.length,\n                user.accessList[i]\n            );\n            allOwners = concatenateAddressArrays(allOwners, otherOwnerArr);\n        }\n\n        return (msg.sender, allFilenames, allOwners, hill.accessList, hill.isValid);\n    }\n\n    function createFile(\n        string calldata filename,\n        string calldata cid,\n        uint256 filesize\n    ) external {\n        if (!antHills.exists(msg.sender)) {\n            revert(\"Hill does not exist\");\n        }\n        if (antHills.exists(filename, msg.sender)) {\n            revert(\"File already exists\");\n        }\n        antHills.storeFileMeta(filename, cid, filesize, msg.sender);\n\n        emit LibraryUpdated(msg.sender);\n    }\n\n    function deleteFile(string calldata filename) external {\n        antHills.resetFileMeta(filename, msg.sender);\n\n        emit LibraryUpdated(msg.sender);\n    }\n\n    function getFile(string calldata filename)\n        external\n        view\n        returns (File memory)\n    {\n        File memory file = antHills.loadFileMeta(filename, msg.sender);\n        require(file.isValid, \"File does not exist\");\n        return file;\n    }\n\n    function checkFileExists(string calldata filename)\n        external\n        view\n        returns (bool isValid)\n    {\n        return antHills.exists(filename, msg.sender);\n    }\n\n    function concatenateStringArrays(string[] memory a, string[] memory b)\n        internal\n        pure\n        returns (string[] memory)\n    {\n        string[] memory r = new string[](a.length + b.length);\n        uint256 i = 0;\n        while (i < a.length) {\n            r[i] = a[i];\n            i++;\n        }\n\n        uint256 j = 0;\n        while (j < b.length) {\n            r[i] = b[j];\n            j++;\n            i++;\n        }\n\n        return r;\n    }\n\n    function concatenateAddressArrays(address[] memory a, address[] memory b)\n        internal\n        pure\n        returns (address[] memory)\n    {\n        address[] memory r = new address[](a.length + b.length);\n        uint256 i = 0;\n        while (i < a.length) {\n            r[i] = a[i];\n            i++;\n        }\n\n        uint256 j = 0;\n        while (j < b.length) {\n            r[i] = b[j];\n            j++;\n            i++;\n        }\n\n        return r;\n    }\n\n    function fillAddressArray(uint256 length, address val)\n        internal\n        pure\n        returns (address[] memory)\n    {\n        address[] memory r = new address[](length);\n\n        for (uint256 i = 0; i < r.length; i++) {\n            r[i] = val;\n        }\n\n        return r;\n    }\n}\n",
  "sourcePath": "/Users/moubarakjeje/cs-699-dapp/smartcontract/contracts/MBRK.sol",
  "compiler": {
    "name": "solc",
    "version": "0.8.12+commit.f00d7308.Emscripten.clang"
  },
  "schemaVersion": "3.4.7",
  "updatedAt": "2022-05-06T23:27:07.681Z",
  "networkType": "ethereum",
  "devdoc": {
    "kind": "dev",
    "methods": {},
    "version": 1
  },
  "userdoc": {
    "kind": "user",
    "methods": {},
    "version": 1
  }
}